{
  "_format": "hh-sol-artifact-1",
  "contractName": "CarbonRegistry",
  "sourceName": "contracts/CarbonRegistry.sol",
  "abi": [
    {
      "inputs": [
        {
          "internalType": "address",
          "name": "_carbonToken",
          "type": "address"
        }
      ],
      "stateMutability": "nonpayable",
      "type": "constructor"
    },
    {
      "inputs": [],
      "name": "AccessControlBadConfirmation",
      "type": "error"
    },
    {
      "inputs": [
        {
          "internalType": "address",
          "name": "account",
          "type": "address"
        },
        {
          "internalType": "bytes32",
          "name": "neededRole",
          "type": "bytes32"
        }
      ],
      "name": "AccessControlUnauthorizedAccount",
      "type": "error"
    },
    {
      "anonymous": false,
      "inputs": [
        {
          "indexed": true,
          "internalType": "uint256",
          "name": "projectId",
          "type": "uint256"
        },
        {
          "indexed": true,
          "internalType": "address",
          "name": "auditor",
          "type": "address"
        }
      ],
      "name": "AuditorAssigned",
      "type": "event"
    },
    {
      "anonymous": false,
      "inputs": [
        {
          "indexed": true,
          "internalType": "uint256",
          "name": "projectId",
          "type": "uint256"
        },
        {
          "indexed": false,
          "internalType": "string",
          "name": "reason",
          "type": "string"
        }
      ],
      "name": "ProjectNeedMoreInfo",
      "type": "event"
    },
    {
      "anonymous": false,
      "inputs": [
        {
          "indexed": true,
          "internalType": "uint256",
          "name": "projectId",
          "type": "uint256"
        },
        {
          "indexed": false,
          "internalType": "string",
          "name": "reason",
          "type": "string"
        }
      ],
      "name": "ProjectRejected",
      "type": "event"
    },
    {
      "anonymous": false,
      "inputs": [
        {
          "indexed": true,
          "internalType": "uint256",
          "name": "projectId",
          "type": "uint256"
        },
        {
          "indexed": true,
          "internalType": "address",
          "name": "owner",
          "type": "address"
        }
      ],
      "name": "ProjectSubmitted",
      "type": "event"
    },
    {
      "anonymous": false,
      "inputs": [
        {
          "indexed": true,
          "internalType": "uint256",
          "name": "projectId",
          "type": "uint256"
        },
        {
          "indexed": false,
          "internalType": "uint256",
          "name": "creditsIssued",
          "type": "uint256"
        }
      ],
      "name": "ProjectVerified",
      "type": "event"
    },
    {
      "anonymous": false,
      "inputs": [
        {
          "indexed": true,
          "internalType": "bytes32",
          "name": "role",
          "type": "bytes32"
        },
        {
          "indexed": true,
          "internalType": "bytes32",
          "name": "previousAdminRole",
          "type": "bytes32"
        },
        {
          "indexed": true,
          "internalType": "bytes32",
          "name": "newAdminRole",
          "type": "bytes32"
        }
      ],
      "name": "RoleAdminChanged",
      "type": "event"
    },
    {
      "anonymous": false,
      "inputs": [
        {
          "indexed": true,
          "internalType": "bytes32",
          "name": "role",
          "type": "bytes32"
        },
        {
          "indexed": true,
          "internalType": "address",
          "name": "account",
          "type": "address"
        },
        {
          "indexed": true,
          "internalType": "address",
          "name": "sender",
          "type": "address"
        }
      ],
      "name": "RoleGranted",
      "type": "event"
    },
    {
      "anonymous": false,
      "inputs": [
        {
          "indexed": true,
          "internalType": "bytes32",
          "name": "role",
          "type": "bytes32"
        },
        {
          "indexed": true,
          "internalType": "address",
          "name": "account",
          "type": "address"
        },
        {
          "indexed": true,
          "internalType": "address",
          "name": "sender",
          "type": "address"
        }
      ],
      "name": "RoleRevoked",
      "type": "event"
    },
    {
      "inputs": [],
      "name": "ADMIN_ROLE",
      "outputs": [
        {
          "internalType": "bytes32",
          "name": "",
          "type": "bytes32"
        }
      ],
      "stateMutability": "view",
      "type": "function"
    },
    {
      "inputs": [],
      "name": "AUDITOR_ROLE",
      "outputs": [
        {
          "internalType": "bytes32",
          "name": "",
          "type": "bytes32"
        }
      ],
      "stateMutability": "view",
      "type": "function"
    },
    {
      "inputs": [],
      "name": "DEFAULT_ADMIN_ROLE",
      "outputs": [
        {
          "internalType": "bytes32",
          "name": "",
          "type": "bytes32"
        }
      ],
      "stateMutability": "view",
      "type": "function"
    },
    {
      "inputs": [
        {
          "internalType": "address",
          "name": "_auditor",
          "type": "address"
        }
      ],
      "name": "addAuditor",
      "outputs": [],
      "stateMutability": "nonpayable",
      "type": "function"
    },
    {
      "inputs": [
        {
          "internalType": "uint256",
          "name": "_projectId",
          "type": "uint256"
        },
        {
          "internalType": "address",
          "name": "_auditor",
          "type": "address"
        }
      ],
      "name": "assignAuditor",
      "outputs": [],
      "stateMutability": "nonpayable",
      "type": "function"
    },
    {
      "inputs": [],
      "name": "carbonToken",
      "outputs": [
        {
          "internalType": "contract CarbonCreditToken",
          "name": "",
          "type": "address"
        }
      ],
      "stateMutability": "view",
      "type": "function"
    },
    {
      "inputs": [
        {
          "internalType": "uint256",
          "name": "_projectId",
          "type": "uint256"
        }
      ],
      "name": "getProject",
      "outputs": [
        {
          "components": [
            {
              "internalType": "uint256",
              "name": "id",
              "type": "uint256"
            },
            {
              "internalType": "address",
              "name": "owner",
              "type": "address"
            },
            {
              "internalType": "string",
              "name": "metaDataURI",
              "type": "string"
            },
            {
              "internalType": "string",
              "name": "projectType",
              "type": "string"
            },
            {
              "internalType": "uint256",
              "name": "requestedCredits",
              "type": "uint256"
            },
            {
              "internalType": "uint256",
              "name": "approvedCredits",
              "type": "uint256"
            },
            {
              "internalType": "address",
              "name": "assignedAuditor",
              "type": "address"
            },
            {
              "internalType": "enum CarbonRegistry.ProjectStatus",
              "name": "status",
              "type": "uint8"
            },
            {
              "internalType": "string",
              "name": "lastComment",
              "type": "string"
            }
          ],
          "internalType": "struct CarbonRegistry.Project",
          "name": "",
          "type": "tuple"
        }
      ],
      "stateMutability": "view",
      "type": "function"
    },
    {
      "inputs": [
        {
          "internalType": "bytes32",
          "name": "role",
          "type": "bytes32"
        }
      ],
      "name": "getRoleAdmin",
      "outputs": [
        {
          "internalType": "bytes32",
          "name": "",
          "type": "bytes32"
        }
      ],
      "stateMutability": "view",
      "type": "function"
    },
    {
      "inputs": [
        {
          "internalType": "bytes32",
          "name": "role",
          "type": "bytes32"
        },
        {
          "internalType": "address",
          "name": "account",
          "type": "address"
        }
      ],
      "name": "grantRole",
      "outputs": [],
      "stateMutability": "nonpayable",
      "type": "function"
    },
    {
      "inputs": [
        {
          "internalType": "bytes32",
          "name": "role",
          "type": "bytes32"
        },
        {
          "internalType": "address",
          "name": "account",
          "type": "address"
        }
      ],
      "name": "hasRole",
      "outputs": [
        {
          "internalType": "bool",
          "name": "",
          "type": "bool"
        }
      ],
      "stateMutability": "view",
      "type": "function"
    },
    {
      "inputs": [],
      "name": "projectCount",
      "outputs": [
        {
          "internalType": "uint256",
          "name": "",
          "type": "uint256"
        }
      ],
      "stateMutability": "view",
      "type": "function"
    },
    {
      "inputs": [
        {
          "internalType": "uint256",
          "name": "",
          "type": "uint256"
        }
      ],
      "name": "projects",
      "outputs": [
        {
          "internalType": "uint256",
          "name": "id",
          "type": "uint256"
        },
        {
          "internalType": "address",
          "name": "owner",
          "type": "address"
        },
        {
          "internalType": "string",
          "name": "metaDataURI",
          "type": "string"
        },
        {
          "internalType": "string",
          "name": "projectType",
          "type": "string"
        },
        {
          "internalType": "uint256",
          "name": "requestedCredits",
          "type": "uint256"
        },
        {
          "internalType": "uint256",
          "name": "approvedCredits",
          "type": "uint256"
        },
        {
          "internalType": "address",
          "name": "assignedAuditor",
          "type": "address"
        },
        {
          "internalType": "enum CarbonRegistry.ProjectStatus",
          "name": "status",
          "type": "uint8"
        },
        {
          "internalType": "string",
          "name": "lastComment",
          "type": "string"
        }
      ],
      "stateMutability": "view",
      "type": "function"
    },
    {
      "inputs": [
        {
          "internalType": "uint256",
          "name": "_projectId",
          "type": "uint256"
        },
        {
          "internalType": "string",
          "name": "_reason",
          "type": "string"
        }
      ],
      "name": "rejectProject",
      "outputs": [],
      "stateMutability": "nonpayable",
      "type": "function"
    },
    {
      "inputs": [
        {
          "internalType": "uint256",
          "name": "_projectId",
          "type": "uint256"
        },
        {
          "internalType": "string",
          "name": "_reason",
          "type": "string"
        }
      ],
      "name": "rejectProjectByAdmin",
      "outputs": [],
      "stateMutability": "nonpayable",
      "type": "function"
    },
    {
      "inputs": [
        {
          "internalType": "bytes32",
          "name": "role",
          "type": "bytes32"
        },
        {
          "internalType": "address",
          "name": "callerConfirmation",
          "type": "address"
        }
      ],
      "name": "renounceRole",
      "outputs": [],
      "stateMutability": "nonpayable",
      "type": "function"
    },
    {
      "inputs": [
        {
          "internalType": "uint256",
          "name": "_projectId",
          "type": "uint256"
        },
        {
          "internalType": "string",
          "name": "_reason",
          "type": "string"
        }
      ],
      "name": "requestMoreInfo",
      "outputs": [],
      "stateMutability": "nonpayable",
      "type": "function"
    },
    {
      "inputs": [
        {
          "internalType": "uint256",
          "name": "_projectId",
          "type": "uint256"
        },
        {
          "internalType": "string",
          "name": "_reason",
          "type": "string"
        }
      ],
      "name": "requestMoreInfoByAdmin",
      "outputs": [],
      "stateMutability": "nonpayable",
      "type": "function"
    },
    {
      "inputs": [
        {
          "internalType": "bytes32",
          "name": "role",
          "type": "bytes32"
        },
        {
          "internalType": "address",
          "name": "account",
          "type": "address"
        }
      ],
      "name": "revokeRole",
      "outputs": [],
      "stateMutability": "nonpayable",
      "type": "function"
    },
    {
      "inputs": [
        {
          "internalType": "string",
          "name": "_metaDataURI",
          "type": "string"
        },
        {
          "internalType": "string",
          "name": "_projectType",
          "type": "string"
        },
        {
          "internalType": "uint256",
          "name": "_requestedCredits",
          "type": "uint256"
        }
      ],
      "name": "submitProject",
      "outputs": [
        {
          "internalType": "uint256",
          "name": "",
          "type": "uint256"
        }
      ],
      "stateMutability": "nonpayable",
      "type": "function"
    },
    {
      "inputs": [
        {
          "internalType": "address",
          "name": "_owner",
          "type": "address"
        },
        {
          "internalType": "string",
          "name": "_metaDataURI",
          "type": "string"
        },
        {
          "internalType": "string",
          "name": "_projectType",
          "type": "string"
        },
        {
          "internalType": "uint256",
          "name": "_requestedCredits",
          "type": "uint256"
        }
      ],
      "name": "submitProjectForOwner",
      "outputs": [
        {
          "internalType": "uint256",
          "name": "",
          "type": "uint256"
        }
      ],
      "stateMutability": "nonpayable",
      "type": "function"
    },
    {
      "inputs": [
        {
          "internalType": "bytes4",
          "name": "interfaceId",
          "type": "bytes4"
        }
      ],
      "name": "supportsInterface",
      "outputs": [
        {
          "internalType": "bool",
          "name": "",
          "type": "bool"
        }
      ],
      "stateMutability": "view",
      "type": "function"
    },
    {
      "inputs": [
        {
          "internalType": "uint256",
          "name": "_projectId",
          "type": "uint256"
        },
        {
          "internalType": "uint256",
          "name": "_approvedCredits",
          "type": "uint256"
        }
      ],
      "name": "verifyProject",
      "outputs": [],
      "stateMutability": "nonpayable",
      "type": "function"
    },
    {
      "inputs": [
        {
          "internalType": "uint256",
          "name": "_projectId",
          "type": "uint256"
        },
        {
          "internalType": "uint256",
          "name": "_approvedCredits",
          "type": "uint256"
        }
      ],
      "name": "verifyProjectByAdmin",
      "outputs": [],
      "stateMutability": "nonpayable",
      "type": "function"
    }
  ],
  "bytecode": "0x60806040523480156200001157600080fd5b506040516200341a3803806200341a8339818101604052810190620000379190620002a7565b6200004c6000801b33620000c860201b60201c565b506200007f7fa49807205ce4d355092ef5a8a18f56e8913cf4a201fbe287825b095693c2177533620000c860201b60201c565b5080600260006101000a81548173ffffffffffffffffffffffffffffffffffffffff021916908373ffffffffffffffffffffffffffffffffffffffff16021790555050620002d9565b6000620000dc8383620001cb60201b60201c565b620001c057600160008085815260200190815260200160002060000160008473ffffffffffffffffffffffffffffffffffffffff1673ffffffffffffffffffffffffffffffffffffffff16815260200190815260200160002060006101000a81548160ff0219169083151502179055506200015c6200023560201b60201c565b73ffffffffffffffffffffffffffffffffffffffff168273ffffffffffffffffffffffffffffffffffffffff16847f2f8788117e7eff1d82e926ec794901d17c78024a50270940304540a733656f0d60405160405180910390a460019050620001c5565b600090505b92915050565b600080600084815260200190815260200160002060000160008373ffffffffffffffffffffffffffffffffffffffff1673ffffffffffffffffffffffffffffffffffffffff16815260200190815260200160002060009054906101000a900460ff16905092915050565b600033905090565b600080fd5b600073ffffffffffffffffffffffffffffffffffffffff82169050919050565b60006200026f8262000242565b9050919050565b620002818162000262565b81146200028d57600080fd5b50565b600081519050620002a18162000276565b92915050565b600060208284031215620002c057620002bf6200023d565b5b6000620002d08482850162000290565b91505092915050565b61313180620002e96000396000f3fe608060405234801561001057600080fd5b506004361061014d5760003560e01c806358bdbb81116100c3578063d547741f1161007c578063d547741f146103b8578063d85cf3d7146103d4578063de63d7ca146103f0578063e1a027701461040c578063e429cef114610428578063f0f3f2c8146104445761014d565b806358bdbb81146102f45780636e1d616e1461031057806375b238fc1461032e57806382a71ef21461034c57806391d148541461036a578063a217fddf1461039a5761014d565b806321f1a17f1161011557806321f1a17f14610222578063248a9ca31461023e5780632f2ff15d1461026e57806336568abe1461028a57806336fbad26146102a65780633f94d628146102c45761014d565b806301ffc9a714610152578063086a8a87146101825780630cd325801461019e578063107046bd146101ce57806312e4bfab14610206575b600080fd5b61016c60048036038101906101679190611fd5565b610474565b604051610179919061201d565b60405180910390f35b61019c600480360381019061019791906120d3565b6104ee565b005b6101b860048036038101906101b39190612191565b6105cf565b6040516101c59190612247565b60405180910390f35b6101e860048036038101906101e39190612262565b610685565b6040516101fd999897969594939291906123a5565b60405180910390f35b610220600480360381019061021b9190612447565b6108b8565b005b61023c600480360381019061023791906120d3565b610ac3565b005b610258600480360381019061025391906124bd565b610ce4565b60405161026591906124f9565b60405180910390f35b61028860048036038101906102839190612514565b610d03565b005b6102a4600480360381019061029f9190612514565b610d25565b005b6102ae610da0565b6040516102bb9190612247565b60405180910390f35b6102de60048036038101906102d99190612554565b610da6565b6040516102eb9190612247565b60405180910390f35b61030e600480360381019061030991906120d3565b610dc1565b005b610318610dfc565b60405161032591906124f9565b60405180910390f35b610336610e20565b60405161034391906124f9565b60405180910390f35b610354610e44565b6040516103619190612648565b60405180910390f35b610384600480360381019061037f9190612514565b610e6a565b604051610391919061201d565b60405180910390f35b6103a2610ed4565b6040516103af91906124f9565b60405180910390f35b6103d260048036038101906103cd9190612514565b610edb565b005b6103ee60048036038101906103e991906120d3565b610efd565b005b61040a60048036038101906104059190612663565b611007565b005b61042660048036038101906104219190612663565b6110e6565b005b610442600480360381019061043d91906126a3565b61111f565b005b61045e60048036038101906104599190612262565b6111e7565b60405161046b919061281a565b60405180910390f35b60007f7965db0b000000000000000000000000000000000000000000000000000000007bffffffffffffffffffffffffffffffffffffffffffffffffffffffff1916827bffffffffffffffffffffffffffffffffffffffffffffffffffffffff191614806104e757506104e6826114d0565b5b9050919050565b7f59a1c48e5837ad7a7f3dcedcbe129bf3249ec4fbf651fd4f5e2600ead39fe2f56105188161153a565b833373ffffffffffffffffffffffffffffffffffffffff166003600083815260200190815260200160002060060160009054906101000a900473ffffffffffffffffffffffffffffffffffffffff1673ffffffffffffffffffffffffffffffffffffffff16146105bd576040517f08c379a00000000000000000000000000000000000000000000000000000000081526004016105b490612888565b60405180910390fd5b6105c885858561154e565b5050505050565b60007fa49807205ce4d355092ef5a8a18f56e8913cf4a201fbe287825b095693c217756105fb8161153a565b600073ffffffffffffffffffffffffffffffffffffffff168873ffffffffffffffffffffffffffffffffffffffff160361066a576040517f08c379a0000000000000000000000000000000000000000000000000000000008152600401610661906128f4565b60405180910390fd5b6106788888888888886116e4565b9150509695505050505050565b60036020528060005260406000206000915090508060000154908060010160009054906101000a900473ffffffffffffffffffffffffffffffffffffffff16908060020180546106d490612943565b80601f016020809104026020016040519081016040528092919081815260200182805461070090612943565b801561074d5780601f106107225761010080835404028352916020019161074d565b820191906000526020600020905b81548152906001019060200180831161073057829003601f168201915b50505050509080600301805461076290612943565b80601f016020809104026020016040519081016040528092919081815260200182805461078e90612943565b80156107db5780601f106107b0576101008083540402835291602001916107db565b820191906000526020600020905b8154815290600101906020018083116107be57829003601f168201915b5050505050908060040154908060050154908060060160009054906101000a900473ffffffffffffffffffffffffffffffffffffffff16908060060160149054906101000a900460ff169080600701805461083590612943565b80601f016020809104026020016040519081016040528092919081815260200182805461086190612943565b80156108ae5780601f10610883576101008083540402835291602001916108ae565b820191906000526020600020905b81548152906001019060200180831161089157829003601f168201915b5050505050905089565b7fa49807205ce4d355092ef5a8a18f56e8913cf4a201fbe287825b095693c217756108e28161153a565b600073ffffffffffffffffffffffffffffffffffffffff168273ffffffffffffffffffffffffffffffffffffffff1603610951576040517f08c379a0000000000000000000000000000000000000000000000000000000008152600401610948906129c0565b60405180910390fd5b600060036000858152602001908152602001600020905060008160000154036109af576040517f08c379a00000000000000000000000000000000000000000000000000000000081526004016109a690612a2c565b60405180910390fd5b6109d97f59a1c48e5837ad7a7f3dcedcbe129bf3249ec4fbf651fd4f5e2600ead39fe2f584610e6a565b610a0957610a077f59a1c48e5837ad7a7f3dcedcbe129bf3249ec4fbf651fd4f5e2600ead39fe2f5846119e6565b505b828160060160006101000a81548173ffffffffffffffffffffffffffffffffffffffff021916908373ffffffffffffffffffffffffffffffffffffffff16021790555060018160060160146101000a81548160ff02191690836004811115610a7457610a7361232e565b5b02179055508273ffffffffffffffffffffffffffffffffffffffff16847fa726f44c951dc5b9682833688ff307aa831c8736f8edf5a12bcb962a5a6c3d0960405160405180910390a350505050565b7f59a1c48e5837ad7a7f3dcedcbe129bf3249ec4fbf651fd4f5e2600ead39fe2f5610aed8161153a565b833373ffffffffffffffffffffffffffffffffffffffff166003600083815260200190815260200160002060060160009054906101000a900473ffffffffffffffffffffffffffffffffffffffff1673ffffffffffffffffffffffffffffffffffffffff1614610b92576040517f08c379a0000000000000000000000000000000000000000000000000000000008152600401610b8990612888565b60405180910390fd5b600060036000878152602001908152602001600020905060016004811115610bbd57610bbc61232e565b5b8160060160149054906101000a900460ff166004811115610be157610be061232e565b5b1480610c22575060006004811115610bfc57610bfb61232e565b5b8160060160149054906101000a900460ff166004811115610c2057610c1f61232e565b5b145b610c61576040517f08c379a0000000000000000000000000000000000000000000000000000000008152600401610c5890612a98565b60405180910390fd5b60048160060160146101000a81548160ff02191690836004811115610c8957610c8861232e565b5b02179055508484826007019182610ca1929190612c94565b50857f1d81b86f9024fa46de22f6befac541d2dc3f784bef2973437a3614b33b67d4e68686604051610cd4929190612da0565b60405180910390a2505050505050565b6000806000838152602001908152602001600020600101549050919050565b610d0c82610ce4565b610d158161153a565b610d1f83836119e6565b50505050565b610d2d611ad7565b73ffffffffffffffffffffffffffffffffffffffff168173ffffffffffffffffffffffffffffffffffffffff1614610d91576040517f6697b23200000000000000000000000000000000000000000000000000000000815260040160405180910390fd5b610d9b8282611adf565b505050565b60015481565b6000610db63387878787876116e4565b905095945050505050565b7fa49807205ce4d355092ef5a8a18f56e8913cf4a201fbe287825b095693c21775610deb8161153a565b610df684848461154e565b50505050565b7f59a1c48e5837ad7a7f3dcedcbe129bf3249ec4fbf651fd4f5e2600ead39fe2f581565b7fa49807205ce4d355092ef5a8a18f56e8913cf4a201fbe287825b095693c2177581565b600260009054906101000a900473ffffffffffffffffffffffffffffffffffffffff1681565b600080600084815260200190815260200160002060000160008373ffffffffffffffffffffffffffffffffffffffff1673ffffffffffffffffffffffffffffffffffffffff16815260200190815260200160002060009054906101000a900460ff16905092915050565b6000801b81565b610ee482610ce4565b610eed8161153a565b610ef78383611adf565b50505050565b7fa49807205ce4d355092ef5a8a18f56e8913cf4a201fbe287825b095693c21775610f278161153a565b60006003600086815260200190815260200160002090506000816000015403610f85576040517f08c379a0000000000000000000000000000000000000000000000000000000008152600401610f7c90612a2c565b60405180910390fd5b60048160060160146101000a81548160ff02191690836004811115610fad57610fac61232e565b5b02179055508383826007019182610fc5929190612c94565b50847f1d81b86f9024fa46de22f6befac541d2dc3f784bef2973437a3614b33b67d4e68585604051610ff8929190612da0565b60405180910390a25050505050565b7f59a1c48e5837ad7a7f3dcedcbe129bf3249ec4fbf651fd4f5e2600ead39fe2f56110318161153a565b823373ffffffffffffffffffffffffffffffffffffffff166003600083815260200190815260200160002060060160009054906101000a900473ffffffffffffffffffffffffffffffffffffffff1673ffffffffffffffffffffffffffffffffffffffff16146110d6576040517f08c379a00000000000000000000000000000000000000000000000000000000081526004016110cd90612888565b60405180910390fd5b6110e08484611bd1565b50505050565b7fa49807205ce4d355092ef5a8a18f56e8913cf4a201fbe287825b095693c217756111108161153a565b61111a8383611bd1565b505050565b7fa49807205ce4d355092ef5a8a18f56e8913cf4a201fbe287825b095693c217756111498161153a565b600073ffffffffffffffffffffffffffffffffffffffff168273ffffffffffffffffffffffffffffffffffffffff16036111b8576040517f08c379a00000000000000000000000000000000000000000000000000000000081526004016111af906129c0565b60405180910390fd5b6111e27f59a1c48e5837ad7a7f3dcedcbe129bf3249ec4fbf651fd4f5e2600ead39fe2f5836119e6565b505050565b6111ef611ee9565b6003600083815260200190815260200160002060405180610120016040529081600082015481526020016001820160009054906101000a900473ffffffffffffffffffffffffffffffffffffffff1673ffffffffffffffffffffffffffffffffffffffff1673ffffffffffffffffffffffffffffffffffffffff16815260200160028201805461127e90612943565b80601f01602080910402602001604051908101604052809291908181526020018280546112aa90612943565b80156112f75780601f106112cc576101008083540402835291602001916112f7565b820191906000526020600020905b8154815290600101906020018083116112da57829003601f168201915b5050505050815260200160038201805461131090612943565b80601f016020809104026020016040519081016040528092919081815260200182805461133c90612943565b80156113895780601f1061135e57610100808354040283529160200191611389565b820191906000526020600020905b81548152906001019060200180831161136c57829003601f168201915b5050505050815260200160048201548152602001600582015481526020016006820160009054906101000a900473ffffffffffffffffffffffffffffffffffffffff1673ffffffffffffffffffffffffffffffffffffffff1673ffffffffffffffffffffffffffffffffffffffff1681526020016006820160149054906101000a900460ff1660048111156114215761142061232e565b5b60048111156114335761143261232e565b5b815260200160078201805461144790612943565b80601f016020809104026020016040519081016040528092919081815260200182805461147390612943565b80156114c05780601f10611495576101008083540402835291602001916114c0565b820191906000526020600020905b8154815290600101906020018083116114a357829003601f168201915b5050505050815250509050919050565b60007f01ffc9a7000000000000000000000000000000000000000000000000000000007bffffffffffffffffffffffffffffffffffffffffffffffffffffffff1916827bffffffffffffffffffffffffffffffffffffffffffffffffffffffff1916149050919050565b61154b81611546611ad7565b611e98565b50565b600060036000858152602001908152602001600020905060008160000154036115ac576040517f08c379a00000000000000000000000000000000000000000000000000000000081526004016115a390612a2c565b60405180910390fd5b600160048111156115c0576115bf61232e565b5b8160060160149054906101000a900460ff1660048111156115e4576115e361232e565b5b148061162457506004808111156115fe576115fd61232e565b5b8160060160149054906101000a900460ff1660048111156116225761162161232e565b5b145b611663576040517f08c379a000000000000000000000000000000000000000000000000000000000815260040161165a90612e10565b60405180910390fd5b60038160060160146101000a81548160ff0219169083600481111561168b5761168a61232e565b5b021790555082828260070191826116a3929190612c94565b50837f04c4bc2e5efa798b7fa128e224a88e0ac9420f33e8a2706d3e3b6280c3f422f684846040516116d6929190612da0565b60405180910390a250505050565b6000808211611728576040517f08c379a000000000000000000000000000000000000000000000000000000000815260040161171f90612e7c565b60405180910390fd5b6001600081548092919061173b90612ecb565b9190505550600060015490506040518061012001604052808281526020018973ffffffffffffffffffffffffffffffffffffffff16815260200188888080601f016020809104026020016040519081016040528093929190818152602001838380828437600081840152601f19601f82011690508083019250505050505050815260200186868080601f016020809104026020016040519081016040528093929190818152602001838380828437600081840152601f19601f82011690508083019250505050505050815260200184815260200160008152602001600073ffffffffffffffffffffffffffffffffffffffff168152602001600060048111156118475761184661232e565b5b815260200160405180602001604052806000815250815250600360008381526020019081526020016000206000820151816000015560208201518160010160006101000a81548173ffffffffffffffffffffffffffffffffffffffff021916908373ffffffffffffffffffffffffffffffffffffffff16021790555060408201518160020190816118d89190612f13565b5060608201518160030190816118ee9190612f13565b506080820151816004015560a0820151816005015560c08201518160060160006101000a81548173ffffffffffffffffffffffffffffffffffffffff021916908373ffffffffffffffffffffffffffffffffffffffff16021790555060e08201518160060160146101000a81548160ff021916908360048111156119755761197461232e565b5b02179055506101008201518160070190816119909190612f13565b509050508773ffffffffffffffffffffffffffffffffffffffff16817f22eb44677349043faa70ae1c857bc016d223f2d92e34ffde97179347f18c8d5d60405160405180910390a3809150509695505050505050565b60006119f28383610e6a565b611acc57600160008085815260200190815260200160002060000160008473ffffffffffffffffffffffffffffffffffffffff1673ffffffffffffffffffffffffffffffffffffffff16815260200190815260200160002060006101000a81548160ff021916908315150217905550611a69611ad7565b73ffffffffffffffffffffffffffffffffffffffff168273ffffffffffffffffffffffffffffffffffffffff16847f2f8788117e7eff1d82e926ec794901d17c78024a50270940304540a733656f0d60405160405180910390a460019050611ad1565b600090505b92915050565b600033905090565b6000611aeb8383610e6a565b15611bc657600080600085815260200190815260200160002060000160008473ffffffffffffffffffffffffffffffffffffffff1673ffffffffffffffffffffffffffffffffffffffff16815260200190815260200160002060006101000a81548160ff021916908315150217905550611b63611ad7565b73ffffffffffffffffffffffffffffffffffffffff168273ffffffffffffffffffffffffffffffffffffffff16847ff6391f5c32d9c69d2a47ea670b442974b53935d1edc7fd64eb21e047a839171b60405160405180910390a460019050611bcb565b600090505b92915050565b60006003600084815260200190815260200160002090506000816000015403611c2f576040517f08c379a0000000000000000000000000000000000000000000000000000000008152600401611c2690612a2c565b60405180910390fd5b60016004811115611c4357611c4261232e565b5b8160060160149054906101000a900460ff166004811115611c6757611c6661232e565b5b1480611ca75750600480811115611c8157611c8061232e565b5b8160060160149054906101000a900460ff166004811115611ca557611ca461232e565b5b145b611ce6576040517f08c379a0000000000000000000000000000000000000000000000000000000008152600401611cdd90612e10565b60405180910390fd5b60008211611d29576040517f08c379a0000000000000000000000000000000000000000000000000000000008152600401611d2090612e7c565b60405180910390fd5b8060040154821115611d70576040517f08c379a0000000000000000000000000000000000000000000000000000000008152600401611d6790613031565b60405180910390fd5b81816005018190555060028160060160146101000a81548160ff02191690836004811115611da157611da061232e565b5b0217905550600260009054906101000a900473ffffffffffffffffffffffffffffffffffffffff1673ffffffffffffffffffffffffffffffffffffffff1663731133e98260010160009054906101000a900473ffffffffffffffffffffffffffffffffffffffff1685856040518463ffffffff1660e01b8152600401611e2993929190613088565b600060405180830381600087803b158015611e4357600080fd5b505af1158015611e57573d6000803e3d6000fd5b50505050827f051deb1bc4d34dca3248a2b7a5c31d2e05a2c6f8bab99a6dbe121308e4d921ae83604051611e8b9190612247565b60405180910390a2505050565b611ea28282610e6a565b611ee55780826040517fe2517d3f000000000000000000000000000000000000000000000000000000008152600401611edc9291906130d2565b60405180910390fd5b5050565b60405180610120016040528060008152602001600073ffffffffffffffffffffffffffffffffffffffff16815260200160608152602001606081526020016000815260200160008152602001600073ffffffffffffffffffffffffffffffffffffffff16815260200160006004811115611f6657611f6561232e565b5b8152602001606081525090565b600080fd5b600080fd5b60007fffffffff0000000000000000000000000000000000000000000000000000000082169050919050565b611fb281611f7d565b8114611fbd57600080fd5b50565b600081359050611fcf81611fa9565b92915050565b600060208284031215611feb57611fea611f73565b5b6000611ff984828501611fc0565b91505092915050565b60008115159050919050565b61201781612002565b82525050565b6000602082019050612032600083018461200e565b92915050565b6000819050919050565b61204b81612038565b811461205657600080fd5b50565b60008135905061206881612042565b92915050565b600080fd5b600080fd5b600080fd5b60008083601f8401126120935761209261206e565b5b8235905067ffffffffffffffff8111156120b0576120af612073565b5b6020830191508360018202830111156120cc576120cb612078565b5b9250929050565b6000806000604084860312156120ec576120eb611f73565b5b60006120fa86828701612059565b935050602084013567ffffffffffffffff81111561211b5761211a611f78565b5b6121278682870161207d565b92509250509250925092565b600073ffffffffffffffffffffffffffffffffffffffff82169050919050565b600061215e82612133565b9050919050565b61216e81612153565b811461217957600080fd5b50565b60008135905061218b81612165565b92915050565b600080600080600080608087890312156121ae576121ad611f73565b5b60006121bc89828a0161217c565b965050602087013567ffffffffffffffff8111156121dd576121dc611f78565b5b6121e989828a0161207d565b9550955050604087013567ffffffffffffffff81111561220c5761220b611f78565b5b61221889828a0161207d565b9350935050606061222b89828a01612059565b9150509295509295509295565b61224181612038565b82525050565b600060208201905061225c6000830184612238565b92915050565b60006020828403121561227857612277611f73565b5b600061228684828501612059565b91505092915050565b61229881612153565b82525050565b600081519050919050565b600082825260208201905092915050565b60005b838110156122d85780820151818401526020810190506122bd565b60008484015250505050565b6000601f19601f8301169050919050565b60006123008261229e565b61230a81856122a9565b935061231a8185602086016122ba565b612323816122e4565b840191505092915050565b7f4e487b7100000000000000000000000000000000000000000000000000000000600052602160045260246000fd5b6005811061236e5761236d61232e565b5b50565b600081905061237f8261235d565b919050565b600061238f82612371565b9050919050565b61239f81612384565b82525050565b6000610120820190506123bb600083018c612238565b6123c8602083018b61228f565b81810360408301526123da818a6122f5565b905081810360608301526123ee81896122f5565b90506123fd6080830188612238565b61240a60a0830187612238565b61241760c083018661228f565b61242460e0830185612396565b81810361010083015261243781846122f5565b90509a9950505050505050505050565b6000806040838503121561245e5761245d611f73565b5b600061246c85828601612059565b925050602061247d8582860161217c565b9150509250929050565b6000819050919050565b61249a81612487565b81146124a557600080fd5b50565b6000813590506124b781612491565b92915050565b6000602082840312156124d3576124d2611f73565b5b60006124e1848285016124a8565b91505092915050565b6124f381612487565b82525050565b600060208201905061250e60008301846124ea565b92915050565b6000806040838503121561252b5761252a611f73565b5b6000612539858286016124a8565b925050602061254a8582860161217c565b9150509250929050565b6000806000806000606086880312156125705761256f611f73565b5b600086013567ffffffffffffffff81111561258e5761258d611f78565b5b61259a8882890161207d565b9550955050602086013567ffffffffffffffff8111156125bd576125bc611f78565b5b6125c98882890161207d565b935093505060406125dc88828901612059565b9150509295509295909350565b6000819050919050565b600061260e61260961260484612133565b6125e9565b612133565b9050919050565b6000612620826125f3565b9050919050565b600061263282612615565b9050919050565b61264281612627565b82525050565b600060208201905061265d6000830184612639565b92915050565b6000806040838503121561267a57612679611f73565b5b600061268885828601612059565b925050602061269985828601612059565b9150509250929050565b6000602082840312156126b9576126b8611f73565b5b60006126c78482850161217c565b91505092915050565b6126d981612038565b82525050565b6126e881612153565b82525050565b600082825260208201905092915050565b600061270a8261229e565b61271481856126ee565b93506127248185602086016122ba565b61272d816122e4565b840191505092915050565b61274181612384565b82525050565b60006101208301600083015161276060008601826126d0565b50602083015161277360208601826126df565b506040830151848203604086015261278b82826126ff565b915050606083015184820360608601526127a582826126ff565b91505060808301516127ba60808601826126d0565b5060a08301516127cd60a08601826126d0565b5060c08301516127e060c08601826126df565b5060e08301516127f360e0860182612738565b5061010083015184820361010086015261280d82826126ff565b9150508091505092915050565b600060208201905081810360008301526128348184612747565b905092915050565b7f4e6f742061737369676e65642061756469746f72000000000000000000000000600082015250565b60006128726014836122a9565b915061287d8261283c565b602082019050919050565b600060208201905081810360008301526128a181612865565b9050919050565b7f6f776e6572203d207a65726f0000000000000000000000000000000000000000600082015250565b60006128de600c836122a9565b91506128e9826128a8565b602082019050919050565b6000602082019050818103600083015261290d816128d1565b9050919050565b7f4e487b7100000000000000000000000000000000000000000000000000000000600052602260045260246000fd5b6000600282049050600182168061295b57607f821691505b60208210810361296e5761296d612914565b5b50919050565b7f61756469746f72203d207a65726f000000000000000000000000000000000000600082015250565b60006129aa600e836122a9565b91506129b582612974565b602082019050919050565b600060208201905081810360008301526129d98161299d565b9050919050565b7f50726f6a656374206e6f7420666f756e64000000000000000000000000000000600082015250565b6000612a166011836122a9565b9150612a21826129e0565b602082019050919050565b60006020820190508181036000830152612a4581612a09565b9050919050565b7f496e76616c696420737461746500000000000000000000000000000000000000600082015250565b6000612a82600d836122a9565b9150612a8d82612a4c565b602082019050919050565b60006020820190508181036000830152612ab181612a75565b9050919050565b600082905092915050565b7f4e487b7100000000000000000000000000000000000000000000000000000000600052604160045260246000fd5b60008190508160005260206000209050919050565b60006020601f8301049050919050565b600082821b905092915050565b600060088302612b547fffffffffffffffffffffffffffffffffffffffffffffffffffffffffffffffff82612b17565b612b5e8683612b17565b95508019841693508086168417925050509392505050565b6000612b91612b8c612b8784612038565b6125e9565b612038565b9050919050565b6000819050919050565b612bab83612b76565b612bbf612bb782612b98565b848454612b24565b825550505050565b600090565b612bd4612bc7565b612bdf818484612ba2565b505050565b5b81811015612c0357612bf8600082612bcc565b600181019050612be5565b5050565b601f821115612c4857612c1981612af2565b612c2284612b07565b81016020851015612c31578190505b612c45612c3d85612b07565b830182612be4565b50505b505050565b600082821c905092915050565b6000612c6b60001984600802612c4d565b1980831691505092915050565b6000612c848383612c5a565b9150826002028217905092915050565b612c9e8383612ab8565b67ffffffffffffffff811115612cb757612cb6612ac3565b5b612cc18254612943565b612ccc828285612c07565b6000601f831160018114612cfb5760008415612ce9578287013590505b612cf38582612c78565b865550612d5b565b601f198416612d0986612af2565b60005b82811015612d3157848901358255600182019150602085019450602081019050612d0c565b86831015612d4e5784890135612d4a601f891682612c5a565b8355505b6001600288020188555050505b50505050505050565b82818337600083830152505050565b6000612d7f83856122a9565b9350612d8c838584612d64565b612d95836122e4565b840190509392505050565b60006020820190508181036000830152612dbb818486612d73565b90509392505050565b7f4e6f7420696e2072657669657720737461746500000000000000000000000000600082015250565b6000612dfa6013836122a9565b9150612e0582612dc4565b602082019050919050565b60006020820190508181036000830152612e2981612ded565b9050919050565b7f43726564697473206d757374206265203e203000000000000000000000000000600082015250565b6000612e666013836122a9565b9150612e7182612e30565b602082019050919050565b60006020820190508181036000830152612e9581612e59565b9050919050565b7f4e487b7100000000000000000000000000000000000000000000000000000000600052601160045260246000fd5b6000612ed682612038565b91507fffffffffffffffffffffffffffffffffffffffffffffffffffffffffffffffff8203612f0857612f07612e9c565b5b600182019050919050565b612f1c8261229e565b67ffffffffffffffff811115612f3557612f34612ac3565b5b612f3f8254612943565b612f4a828285612c07565b600060209050601f831160018114612f7d5760008415612f6b578287015190505b612f758582612c78565b865550612fdd565b601f198416612f8b86612af2565b60005b82811015612fb357848901518255600182019150602085019450602081019050612f8e565b86831015612fd05784890151612fcc601f891682612c5a565b8355505b6001600288020188555050505b505050505050565b7f546f6f206d616e79206372656469747300000000000000000000000000000000600082015250565b600061301b6010836122a9565b915061302682612fe5565b602082019050919050565b6000602082019050818103600083015261304a8161300e565b9050919050565b600082825260208201905092915050565b50565b6000613072600083613051565b915061307d82613062565b600082019050919050565b600060808201905061309d600083018661228f565b6130aa6020830185612238565b6130b76040830184612238565b81810360608301526130c881613065565b9050949350505050565b60006040820190506130e7600083018561228f565b6130f460208301846124ea565b939250505056fea264697066735822122082b5801a7a69e883769416c18fe689e231d2dcacfca991873e03aea4554a8ef264736f6c63430008140033",
  "linkReferences": {},
  "deployedLinkReferences": {}
}