{
  "_format": "hh-sol-artifact-1",
  "contractName": "CarbonMarketplace",
  "sourceName": "contracts/CarbonMarketplace.sol",
  "abi": [
    {
      "inputs": [
        {
          "internalType": "address",
          "name": "_carbonToken",
          "type": "address"
        },
        {
          "internalType": "address",
          "name": "_feeRecipient",
          "type": "address"
        }
      ],
      "stateMutability": "nonpayable",
      "type": "constructor"
    },
    {
      "inputs": [],
      "name": "ReentrancyGuardReentrantCall",
      "type": "error"
    },
    {
      "anonymous": false,
      "inputs": [
        {
          "indexed": true,
          "internalType": "uint256",
          "name": "listingId",
          "type": "uint256"
        }
      ],
      "name": "Cancelled",
      "type": "event"
    },
    {
      "anonymous": false,
      "inputs": [
        {
          "indexed": true,
          "internalType": "uint256",
          "name": "listingId",
          "type": "uint256"
        },
        {
          "indexed": true,
          "internalType": "address",
          "name": "seller",
          "type": "address"
        },
        {
          "indexed": false,
          "internalType": "uint256",
          "name": "projectId",
          "type": "uint256"
        },
        {
          "indexed": false,
          "internalType": "uint256",
          "name": "amount",
          "type": "uint256"
        },
        {
          "indexed": false,
          "internalType": "uint256",
          "name": "priceWei",
          "type": "uint256"
        }
      ],
      "name": "Listed",
      "type": "event"
    },
    {
      "anonymous": false,
      "inputs": [
        {
          "indexed": true,
          "internalType": "uint256",
          "name": "listingId",
          "type": "uint256"
        },
        {
          "indexed": true,
          "internalType": "address",
          "name": "buyer",
          "type": "address"
        },
        {
          "indexed": false,
          "internalType": "uint256",
          "name": "priceWei",
          "type": "uint256"
        }
      ],
      "name": "Purchased",
      "type": "event"
    },
    {
      "inputs": [
        {
          "internalType": "uint256",
          "name": "_listingId",
          "type": "uint256"
        }
      ],
      "name": "buy",
      "outputs": [],
      "stateMutability": "payable",
      "type": "function"
    },
    {
      "inputs": [
        {
          "internalType": "uint256",
          "name": "_listingId",
          "type": "uint256"
        }
      ],
      "name": "cancelListing",
      "outputs": [],
      "stateMutability": "nonpayable",
      "type": "function"
    },
    {
      "inputs": [],
      "name": "carbonToken",
      "outputs": [
        {
          "internalType": "contract CarbonCreditToken",
          "name": "",
          "type": "address"
        }
      ],
      "stateMutability": "view",
      "type": "function"
    },
    {
      "inputs": [
        {
          "internalType": "uint256",
          "name": "_projectId",
          "type": "uint256"
        },
        {
          "internalType": "uint256",
          "name": "_amount",
          "type": "uint256"
        },
        {
          "internalType": "uint256",
          "name": "_priceWei",
          "type": "uint256"
        }
      ],
      "name": "createListing",
      "outputs": [],
      "stateMutability": "nonpayable",
      "type": "function"
    },
    {
      "inputs": [],
      "name": "feeBps",
      "outputs": [
        {
          "internalType": "uint256",
          "name": "",
          "type": "uint256"
        }
      ],
      "stateMutability": "view",
      "type": "function"
    },
    {
      "inputs": [],
      "name": "feeRecipient",
      "outputs": [
        {
          "internalType": "address",
          "name": "",
          "type": "address"
        }
      ],
      "stateMutability": "view",
      "type": "function"
    },
    {
      "inputs": [],
      "name": "listingCount",
      "outputs": [
        {
          "internalType": "uint256",
          "name": "",
          "type": "uint256"
        }
      ],
      "stateMutability": "view",
      "type": "function"
    },
    {
      "inputs": [
        {
          "internalType": "uint256",
          "name": "",
          "type": "uint256"
        }
      ],
      "name": "listings",
      "outputs": [
        {
          "internalType": "uint256",
          "name": "id",
          "type": "uint256"
        },
        {
          "internalType": "address",
          "name": "seller",
          "type": "address"
        },
        {
          "internalType": "uint256",
          "name": "projectId",
          "type": "uint256"
        },
        {
          "internalType": "uint256",
          "name": "amount",
          "type": "uint256"
        },
        {
          "internalType": "uint256",
          "name": "priceWei",
          "type": "uint256"
        },
        {
          "internalType": "bool",
          "name": "active",
          "type": "bool"
        }
      ],
      "stateMutability": "view",
      "type": "function"
    },
    {
      "inputs": [
        {
          "internalType": "address",
          "name": "",
          "type": "address"
        },
        {
          "internalType": "address",
          "name": "",
          "type": "address"
        },
        {
          "internalType": "uint256[]",
          "name": "",
          "type": "uint256[]"
        },
        {
          "internalType": "uint256[]",
          "name": "",
          "type": "uint256[]"
        },
        {
          "internalType": "bytes",
          "name": "",
          "type": "bytes"
        }
      ],
      "name": "onERC1155BatchReceived",
      "outputs": [
        {
          "internalType": "bytes4",
          "name": "",
          "type": "bytes4"
        }
      ],
      "stateMutability": "nonpayable",
      "type": "function"
    },
    {
      "inputs": [
        {
          "internalType": "address",
          "name": "",
          "type": "address"
        },
        {
          "internalType": "address",
          "name": "",
          "type": "address"
        },
        {
          "internalType": "uint256",
          "name": "",
          "type": "uint256"
        },
        {
          "internalType": "uint256",
          "name": "",
          "type": "uint256"
        },
        {
          "internalType": "bytes",
          "name": "",
          "type": "bytes"
        }
      ],
      "name": "onERC1155Received",
      "outputs": [
        {
          "internalType": "bytes4",
          "name": "",
          "type": "bytes4"
        }
      ],
      "stateMutability": "nonpayable",
      "type": "function"
    },
    {
      "inputs": [
        {
          "internalType": "uint256",
          "name": "_feeBps",
          "type": "uint256"
        }
      ],
      "name": "setFeeBps",
      "outputs": [],
      "stateMutability": "nonpayable",
      "type": "function"
    },
    {
      "inputs": [
        {
          "internalType": "address",
          "name": "_recipient",
          "type": "address"
        }
      ],
      "name": "setFeeRecipient",
      "outputs": [],
      "stateMutability": "nonpayable",
      "type": "function"
    },
    {
      "inputs": [
        {
          "internalType": "bytes4",
          "name": "interfaceId",
          "type": "bytes4"
        }
      ],
      "name": "supportsInterface",
      "outputs": [
        {
          "internalType": "bool",
          "name": "",
          "type": "bool"
        }
      ],
      "stateMutability": "view",
      "type": "function"
    }
  ],
  "bytecode": "0x608060405260c86004553480156200001657600080fd5b5060405162001e7c38038062001e7c83398181016040528101906200003c919062000138565b600160008190555081600260006101000a81548173ffffffffffffffffffffffffffffffffffffffff021916908373ffffffffffffffffffffffffffffffffffffffff16021790555080600360006101000a81548173ffffffffffffffffffffffffffffffffffffffff021916908373ffffffffffffffffffffffffffffffffffffffff16021790555050506200017f565b600080fd5b600073ffffffffffffffffffffffffffffffffffffffff82169050919050565b60006200010082620000d3565b9050919050565b6200011281620000f3565b81146200011e57600080fd5b50565b600081519050620001328162000107565b92915050565b60008060408385031215620001525762000151620000ce565b5b6000620001628582860162000121565b9250506020620001758582860162000121565b9150509250929050565b611ced806200018f6000396000f3fe6080604052600436106100c25760003560e01c8063a9b07c261161007f578063d96a094a11610059578063d96a094a14610268578063de74e57b14610284578063e74b981b146102c6578063f23a6e61146102ef576100c2565b8063a9b07c26146101d7578063b03053b614610202578063bc197c811461022b576100c2565b806301ffc9a7146100c757806324a9d85314610104578063305a67a81461012f578063469048401461015857806372c27b621461018357806382a71ef2146101ac575b600080fd5b3480156100d357600080fd5b506100ee60048036038101906100e99190610fa7565b61032c565b6040516100fb9190610fef565b60405180910390f35b34801561011057600080fd5b506101196103a6565b6040516101269190611023565b60405180910390f35b34801561013b57600080fd5b506101566004803603810190610151919061106a565b6103ac565b005b34801561016457600080fd5b5061016d6105c3565b60405161017a91906110d8565b60405180910390f35b34801561018f57600080fd5b506101aa60048036038101906101a5919061106a565b6105e9565b005b3480156101b857600080fd5b506101c16106c8565b6040516101ce9190611152565b60405180910390f35b3480156101e357600080fd5b506101ec6106ee565b6040516101f99190611023565b60405180910390f35b34801561020e57600080fd5b506102296004803603810190610224919061116d565b6106f4565b005b34801561023757600080fd5b50610252600480360381019061024d91906113fa565b610980565b60405161025f91906114d8565b60405180910390f35b610282600480360381019061027d919061106a565b610995565b005b34801561029057600080fd5b506102ab60048036038101906102a6919061106a565b610d2f565b6040516102bd969594939291906114f3565b60405180910390f35b3480156102d257600080fd5b506102ed60048036038101906102e89190611554565b610d98565b005b3480156102fb57600080fd5b5061031660048036038101906103119190611581565b610e6c565b60405161032391906114d8565b60405180910390f35b60007f4e2312e0000000000000000000000000000000000000000000000000000000007bffffffffffffffffffffffffffffffffffffffffffffffffffffffff1916827bffffffffffffffffffffffffffffffffffffffffffffffffffffffff1916148061039f575061039e82610e81565b5b9050919050565b60045481565b6103b4610eeb565b60006005600083815260200190815260200160002090508060050160009054906101000a900460ff1661041c576040517f08c379a000000000000000000000000000000000000000000000000000000000815260040161041390611675565b60405180910390fd5b3373ffffffffffffffffffffffffffffffffffffffff168160010160009054906101000a900473ffffffffffffffffffffffffffffffffffffffff1673ffffffffffffffffffffffffffffffffffffffff16146104ae576040517f08c379a00000000000000000000000000000000000000000000000000000000081526004016104a5906116e1565b60405180910390fd5b60008160050160006101000a81548160ff021916908315150217905550600260009054906101000a900473ffffffffffffffffffffffffffffffffffffffff1673ffffffffffffffffffffffffffffffffffffffff1663f242432a308360010160009054906101000a900473ffffffffffffffffffffffffffffffffffffffff16846002015485600301546040518563ffffffff1660e01b81526004016105589493929190611738565b600060405180830381600087803b15801561057257600080fd5b505af1158015610586573d6000803e3d6000fd5b50505050817fc41d93b8bfbf9fd7cf5bfe271fd649ab6a6fec0ea101c23b82a2a28eca2533a960405160405180910390a2506105c0610f31565b50565b600360009054906101000a900473ffffffffffffffffffffffffffffffffffffffff1681565b600360009054906101000a900473ffffffffffffffffffffffffffffffffffffffff1673ffffffffffffffffffffffffffffffffffffffff163373ffffffffffffffffffffffffffffffffffffffff1614610679576040517f08c379a0000000000000000000000000000000000000000000000000000000008152600401610670906117dc565b60405180910390fd5b6103e88111156106be576040517f08c379a00000000000000000000000000000000000000000000000000000000081526004016106b590611848565b60405180910390fd5b8060048190555050565b600260009054906101000a900473ffffffffffffffffffffffffffffffffffffffff1681565b60015481565b6106fc610eeb565b6000821161073f576040517f08c379a0000000000000000000000000000000000000000000000000000000008152600401610736906118b4565b60405180910390fd5b60008111610782576040517f08c379a000000000000000000000000000000000000000000000000000000000815260040161077990611920565b60405180910390fd5b600260009054906101000a900473ffffffffffffffffffffffffffffffffffffffff1673ffffffffffffffffffffffffffffffffffffffff1663f242432a333086866040518563ffffffff1660e01b81526004016107e39493929190611738565b600060405180830381600087803b1580156107fd57600080fd5b505af1158015610811573d6000803e3d6000fd5b50505050600160008154809291906108289061196f565b9190505550600060015490506040518060c001604052808281526020013373ffffffffffffffffffffffffffffffffffffffff16815260200185815260200184815260200183815260200160011515815250600560008381526020019081526020016000206000820151816000015560208201518160010160006101000a81548173ffffffffffffffffffffffffffffffffffffffff021916908373ffffffffffffffffffffffffffffffffffffffff16021790555060408201518160020155606082015181600301556080820151816004015560a08201518160050160006101000a81548160ff0219169083151502179055509050503373ffffffffffffffffffffffffffffffffffffffff16817fd0e2632082726e989c9a9cac6d495b05080e0d6836ee21e07618b32d5719a40486868660405161096a939291906119b7565b60405180910390a35061097b610f31565b505050565b600063bc197c8160e01b905095945050505050565b61099d610eeb565b60006005600083815260200190815260200160002090508060050160009054906101000a900460ff16610a05576040517f08c379a00000000000000000000000000000000000000000000000000000000081526004016109fc90611675565b60405180910390fd5b80600401543414610a4b576040517f08c379a0000000000000000000000000000000000000000000000000000000008152600401610a4290611a3a565b60405180910390fd5b60008160050160006101000a81548160ff021916908315150217905550600061271060045434610a7b9190611a5a565b610a859190611acb565b905060008134610a959190611afc565b905060008360010160009054906101000a900473ffffffffffffffffffffffffffffffffffffffff1673ffffffffffffffffffffffffffffffffffffffff1682604051610ae190611b5e565b60006040518083038185875af1925050503d8060008114610b1e576040519150601f19603f3d011682016040523d82523d6000602084013e610b23565b606091505b5050905080610b67576040517f08c379a0000000000000000000000000000000000000000000000000000000008152600401610b5e90611bbf565b60405180910390fd5b6000600360009054906101000a900473ffffffffffffffffffffffffffffffffffffffff1673ffffffffffffffffffffffffffffffffffffffff1684604051610baf90611b5e565b60006040518083038185875af1925050503d8060008114610bec576040519150601f19603f3d011682016040523d82523d6000602084013e610bf1565b606091505b5050905080610c35576040517f08c379a0000000000000000000000000000000000000000000000000000000008152600401610c2c90611c2b565b60405180910390fd5b600260009054906101000a900473ffffffffffffffffffffffffffffffffffffffff1673ffffffffffffffffffffffffffffffffffffffff1663f242432a3033886002015489600301546040518563ffffffff1660e01b8152600401610c9e9493929190611738565b600060405180830381600087803b158015610cb857600080fd5b505af1158015610ccc573d6000803e3d6000fd5b505050503373ffffffffffffffffffffffffffffffffffffffff16867ffd51b2c9f55c42d2b72ac683526519563be02fc0107f034ff430c05185ff1b6634604051610d179190611023565b60405180910390a35050505050610d2c610f31565b50565b60056020528060005260406000206000915090508060000154908060010160009054906101000a900473ffffffffffffffffffffffffffffffffffffffff16908060020154908060030154908060040154908060050160009054906101000a900460ff16905086565b600360009054906101000a900473ffffffffffffffffffffffffffffffffffffffff1673ffffffffffffffffffffffffffffffffffffffff163373ffffffffffffffffffffffffffffffffffffffff1614610e28576040517f08c379a0000000000000000000000000000000000000000000000000000000008152600401610e1f90611c97565b60405180910390fd5b80600360006101000a81548173ffffffffffffffffffffffffffffffffffffffff021916908373ffffffffffffffffffffffffffffffffffffffff16021790555050565b600063f23a6e6160e01b905095945050505050565b60007f01ffc9a7000000000000000000000000000000000000000000000000000000007bffffffffffffffffffffffffffffffffffffffffffffffffffffffff1916827bffffffffffffffffffffffffffffffffffffffffffffffffffffffff1916149050919050565b600260005403610f27576040517f3ee5aeb500000000000000000000000000000000000000000000000000000000815260040160405180910390fd5b6002600081905550565b6001600081905550565b6000604051905090565b600080fd5b600080fd5b60007fffffffff0000000000000000000000000000000000000000000000000000000082169050919050565b610f8481610f4f565b8114610f8f57600080fd5b50565b600081359050610fa181610f7b565b92915050565b600060208284031215610fbd57610fbc610f45565b5b6000610fcb84828501610f92565b91505092915050565b60008115159050919050565b610fe981610fd4565b82525050565b60006020820190506110046000830184610fe0565b92915050565b6000819050919050565b61101d8161100a565b82525050565b60006020820190506110386000830184611014565b92915050565b6110478161100a565b811461105257600080fd5b50565b6000813590506110648161103e565b92915050565b6000602082840312156110805761107f610f45565b5b600061108e84828501611055565b91505092915050565b600073ffffffffffffffffffffffffffffffffffffffff82169050919050565b60006110c282611097565b9050919050565b6110d2816110b7565b82525050565b60006020820190506110ed60008301846110c9565b92915050565b6000819050919050565b600061111861111361110e84611097565b6110f3565b611097565b9050919050565b600061112a826110fd565b9050919050565b600061113c8261111f565b9050919050565b61114c81611131565b82525050565b60006020820190506111676000830184611143565b92915050565b60008060006060848603121561118657611185610f45565b5b600061119486828701611055565b93505060206111a586828701611055565b92505060406111b686828701611055565b9150509250925092565b6111c9816110b7565b81146111d457600080fd5b50565b6000813590506111e6816111c0565b92915050565b600080fd5b6000601f19601f8301169050919050565b7f4e487b7100000000000000000000000000000000000000000000000000000000600052604160045260246000fd5b61123a826111f1565b810181811067ffffffffffffffff8211171561125957611258611202565b5b80604052505050565b600061126c610f3b565b90506112788282611231565b919050565b600067ffffffffffffffff82111561129857611297611202565b5b602082029050602081019050919050565b600080fd5b60006112c16112bc8461127d565b611262565b905080838252602082019050602084028301858111156112e4576112e36112a9565b5b835b8181101561130d57806112f98882611055565b8452602084019350506020810190506112e6565b5050509392505050565b600082601f83011261132c5761132b6111ec565b5b813561133c8482602086016112ae565b91505092915050565b600080fd5b600067ffffffffffffffff82111561136557611364611202565b5b61136e826111f1565b9050602081019050919050565b82818337600083830152505050565b600061139d6113988461134a565b611262565b9050828152602081018484840111156113b9576113b8611345565b5b6113c484828561137b565b509392505050565b600082601f8301126113e1576113e06111ec565b5b81356113f184826020860161138a565b91505092915050565b600080600080600060a0868803121561141657611415610f45565b5b6000611424888289016111d7565b9550506020611435888289016111d7565b945050604086013567ffffffffffffffff81111561145657611455610f4a565b5b61146288828901611317565b935050606086013567ffffffffffffffff81111561148357611482610f4a565b5b61148f88828901611317565b925050608086013567ffffffffffffffff8111156114b0576114af610f4a565b5b6114bc888289016113cc565b9150509295509295909350565b6114d281610f4f565b82525050565b60006020820190506114ed60008301846114c9565b92915050565b600060c0820190506115086000830189611014565b61151560208301886110c9565b6115226040830187611014565b61152f6060830186611014565b61153c6080830185611014565b61154960a0830184610fe0565b979650505050505050565b60006020828403121561156a57611569610f45565b5b6000611578848285016111d7565b91505092915050565b600080600080600060a0868803121561159d5761159c610f45565b5b60006115ab888289016111d7565b95505060206115bc888289016111d7565b94505060406115cd88828901611055565b93505060606115de88828901611055565b925050608086013567ffffffffffffffff8111156115ff576115fe610f4a565b5b61160b888289016113cc565b9150509295509295909350565b600082825260208201905092915050565b7f4e6f742061637469766500000000000000000000000000000000000000000000600082015250565b600061165f600a83611618565b915061166a82611629565b602082019050919050565b6000602082019050818103600083015261168e81611652565b9050919050565b7f4e6f742073656c6c657200000000000000000000000000000000000000000000600082015250565b60006116cb600a83611618565b91506116d682611695565b602082019050919050565b600060208201905081810360008301526116fa816116be565b9050919050565b600082825260208201905092915050565b50565b6000611722600083611701565b915061172d82611712565b600082019050919050565b600060a08201905061174d60008301876110c9565b61175a60208301866110c9565b6117676040830185611014565b6117746060830184611014565b818103608083015261178581611715565b905095945050505050565b7f4f6e6c7920666565526563697069656e74000000000000000000000000000000600082015250565b60006117c6601183611618565b91506117d182611790565b602082019050919050565b600060208201905081810360008301526117f5816117b9565b9050919050565b7f46656520746f6f206869676820283e3130252900000000000000000000000000600082015250565b6000611832601383611618565b915061183d826117fc565b602082019050919050565b6000602082019050818103600083015261186181611825565b9050919050565b7f616d6f756e74203d203000000000000000000000000000000000000000000000600082015250565b600061189e600a83611618565b91506118a982611868565b602082019050919050565b600060208201905081810360008301526118cd81611891565b9050919050565b7f7072696365203d20300000000000000000000000000000000000000000000000600082015250565b600061190a600983611618565b9150611915826118d4565b602082019050919050565b60006020820190508181036000830152611939816118fd565b9050919050565b7f4e487b7100000000000000000000000000000000000000000000000000000000600052601160045260246000fd5b600061197a8261100a565b91507fffffffffffffffffffffffffffffffffffffffffffffffffffffffffffffffff82036119ac576119ab611940565b5b600182019050919050565b60006060820190506119cc6000830186611014565b6119d96020830185611014565b6119e66040830184611014565b949350505050565b7f496e636f7272656374204554482073656e740000000000000000000000000000600082015250565b6000611a24601283611618565b9150611a2f826119ee565b602082019050919050565b60006020820190508181036000830152611a5381611a17565b9050919050565b6000611a658261100a565b9150611a708361100a565b9250828202611a7e8161100a565b91508282048414831517611a9557611a94611940565b5b5092915050565b7f4e487b7100000000000000000000000000000000000000000000000000000000600052601260045260246000fd5b6000611ad68261100a565b9150611ae18361100a565b925082611af157611af0611a9c565b5b828204905092915050565b6000611b078261100a565b9150611b128361100a565b9250828203905081811115611b2a57611b29611940565b5b92915050565b600081905092915050565b6000611b48600083611b30565b9150611b5382611712565b600082019050919050565b6000611b6982611b3b565b9150819050919050565b7f53656c6c6572207061796d656e74206661696c65640000000000000000000000600082015250565b6000611ba9601583611618565b9150611bb482611b73565b602082019050919050565b60006020820190508181036000830152611bd881611b9c565b9050919050565b7f466565207061796d656e74206661696c65640000000000000000000000000000600082015250565b6000611c15601283611618565b9150611c2082611bdf565b602082019050919050565b60006020820190508181036000830152611c4481611c08565b9050919050565b7f4f6e6c792063757272656e7420666565526563697069656e7400000000000000600082015250565b6000611c81601983611618565b9150611c8c82611c4b565b602082019050919050565b60006020820190508181036000830152611cb081611c74565b905091905056fea2646970667358221220725c2c1cef29934daa979adc41f2ea8b1e9ab14036cd474d56b81a1717fd8ba864736f6c63430008140033",
  "linkReferences": {},
  "deployedLinkReferences": {}
}