{
  "_format": "hh-sol-artifact-1",
  "contractName": "CarbonMarketplace",
  "sourceName": "contracts/CarbonMarketplace.sol",
  "abi": [
    {
      "inputs": [
        {
          "internalType": "address",
          "name": "_carbonToken",
          "type": "address"
        },
        {
          "internalType": "address",
          "name": "_feeRecipient",
          "type": "address"
        }
      ],
      "stateMutability": "nonpayable",
      "type": "constructor"
    },
    {
      "inputs": [],
      "name": "ReentrancyGuardReentrantCall",
      "type": "error"
    },
    {
      "anonymous": false,
      "inputs": [
        {
          "indexed": true,
          "internalType": "uint256",
          "name": "listingId",
          "type": "uint256"
        }
      ],
      "name": "Cancelled",
      "type": "event"
    },
    {
      "anonymous": false,
      "inputs": [
        {
          "indexed": true,
          "internalType": "uint256",
          "name": "listingId",
          "type": "uint256"
        },
        {
          "indexed": true,
          "internalType": "address",
          "name": "seller",
          "type": "address"
        },
        {
          "indexed": false,
          "internalType": "uint256",
          "name": "projectId",
          "type": "uint256"
        },
        {
          "indexed": false,
          "internalType": "uint256",
          "name": "amount",
          "type": "uint256"
        },
        {
          "indexed": false,
          "internalType": "uint256",
          "name": "priceWei",
          "type": "uint256"
        }
      ],
      "name": "Listed",
      "type": "event"
    },
    {
      "anonymous": false,
      "inputs": [
        {
          "indexed": true,
          "internalType": "uint256",
          "name": "listingId",
          "type": "uint256"
        },
        {
          "indexed": true,
          "internalType": "address",
          "name": "buyer",
          "type": "address"
        },
        {
          "indexed": false,
          "internalType": "uint256",
          "name": "priceWei",
          "type": "uint256"
        }
      ],
      "name": "Purchased",
      "type": "event"
    },
    {
      "inputs": [
        {
          "internalType": "uint256",
          "name": "_listingId",
          "type": "uint256"
        }
      ],
      "name": "buy",
      "outputs": [],
      "stateMutability": "payable",
      "type": "function"
    },
    {
      "inputs": [
        {
          "internalType": "uint256",
          "name": "_listingId",
          "type": "uint256"
        }
      ],
      "name": "cancelListing",
      "outputs": [],
      "stateMutability": "nonpayable",
      "type": "function"
    },
    {
      "inputs": [],
      "name": "carbonToken",
      "outputs": [
        {
          "internalType": "contract CarbonCreditToken",
          "name": "",
          "type": "address"
        }
      ],
      "stateMutability": "view",
      "type": "function"
    },
    {
      "inputs": [
        {
          "internalType": "uint256",
          "name": "_projectId",
          "type": "uint256"
        },
        {
          "internalType": "uint256",
          "name": "_amount",
          "type": "uint256"
        },
        {
          "internalType": "uint256",
          "name": "_priceWei",
          "type": "uint256"
        }
      ],
      "name": "createListing",
      "outputs": [],
      "stateMutability": "nonpayable",
      "type": "function"
    },
    {
      "inputs": [],
      "name": "feeBps",
      "outputs": [
        {
          "internalType": "uint256",
          "name": "",
          "type": "uint256"
        }
      ],
      "stateMutability": "view",
      "type": "function"
    },
    {
      "inputs": [],
      "name": "feeRecipient",
      "outputs": [
        {
          "internalType": "address",
          "name": "",
          "type": "address"
        }
      ],
      "stateMutability": "view",
      "type": "function"
    },
    {
      "inputs": [],
      "name": "listingCount",
      "outputs": [
        {
          "internalType": "uint256",
          "name": "",
          "type": "uint256"
        }
      ],
      "stateMutability": "view",
      "type": "function"
    },
    {
      "inputs": [
        {
          "internalType": "uint256",
          "name": "",
          "type": "uint256"
        }
      ],
      "name": "listings",
      "outputs": [
        {
          "internalType": "uint256",
          "name": "id",
          "type": "uint256"
        },
        {
          "internalType": "address",
          "name": "seller",
          "type": "address"
        },
        {
          "internalType": "uint256",
          "name": "projectId",
          "type": "uint256"
        },
        {
          "internalType": "uint256",
          "name": "amount",
          "type": "uint256"
        },
        {
          "internalType": "uint256",
          "name": "priceWei",
          "type": "uint256"
        },
        {
          "internalType": "bool",
          "name": "active",
          "type": "bool"
        }
      ],
      "stateMutability": "view",
      "type": "function"
    },
    {
      "inputs": [
        {
          "internalType": "uint256",
          "name": "_feeBps",
          "type": "uint256"
        }
      ],
      "name": "setFeeBps",
      "outputs": [],
      "stateMutability": "nonpayable",
      "type": "function"
    },
    {
      "inputs": [
        {
          "internalType": "address",
          "name": "_recipient",
          "type": "address"
        }
      ],
      "name": "setFeeRecipient",
      "outputs": [],
      "stateMutability": "nonpayable",
      "type": "function"
    }
  ],
  "bytecode": "0x608060405260c86004553480156200001657600080fd5b50604051620018393803806200183983398181016040528101906200003c919062000138565b600160008190555081600260006101000a81548173ffffffffffffffffffffffffffffffffffffffff021916908373ffffffffffffffffffffffffffffffffffffffff16021790555080600360006101000a81548173ffffffffffffffffffffffffffffffffffffffff021916908373ffffffffffffffffffffffffffffffffffffffff16021790555050506200017f565b600080fd5b600073ffffffffffffffffffffffffffffffffffffffff82169050919050565b60006200010082620000d3565b9050919050565b6200011281620000f3565b81146200011e57600080fd5b50565b600081519050620001328162000107565b92915050565b60008060408385031215620001525762000151620000ce565b5b6000620001628582860162000121565b9250506020620001758582860162000121565b9150509250929050565b6116aa806200018f6000396000f3fe6080604052600436106100915760003560e01c8063a9b07c2611610059578063a9b07c2614610169578063b03053b614610194578063d96a094a146101bd578063de74e57b146101d9578063e74b981b1461021b57610091565b806324a9d85314610096578063305a67a8146100c157806346904840146100ea57806372c27b621461011557806382a71ef21461013e575b600080fd5b3480156100a257600080fd5b506100ab610244565b6040516100b89190610d5e565b60405180910390f35b3480156100cd57600080fd5b506100e860048036038101906100e39190610daa565b61024a565b005b3480156100f657600080fd5b506100ff610461565b60405161010c9190610e18565b60405180910390f35b34801561012157600080fd5b5061013c60048036038101906101379190610daa565b610487565b005b34801561014a57600080fd5b50610153610566565b6040516101609190610e92565b60405180910390f35b34801561017557600080fd5b5061017e61058c565b60405161018b9190610d5e565b60405180910390f35b3480156101a057600080fd5b506101bb60048036038101906101b69190610ead565b610592565b005b6101d760048036038101906101d29190610daa565b61081e565b005b3480156101e557600080fd5b5061020060048036038101906101fb9190610daa565b610bb8565b60405161021296959493929190610f1b565b60405180910390f35b34801561022757600080fd5b50610242600480360381019061023d9190610fa8565b610c21565b005b60045481565b610252610cf5565b60006005600083815260200190815260200160002090508060050160009054906101000a900460ff166102ba576040517f08c379a00000000000000000000000000000000000000000000000000000000081526004016102b190611032565b60405180910390fd5b3373ffffffffffffffffffffffffffffffffffffffff168160010160009054906101000a900473ffffffffffffffffffffffffffffffffffffffff1673ffffffffffffffffffffffffffffffffffffffff161461034c576040517f08c379a00000000000000000000000000000000000000000000000000000000081526004016103439061109e565b60405180910390fd5b60008160050160006101000a81548160ff021916908315150217905550600260009054906101000a900473ffffffffffffffffffffffffffffffffffffffff1673ffffffffffffffffffffffffffffffffffffffff1663f242432a308360010160009054906101000a900473ffffffffffffffffffffffffffffffffffffffff16846002015485600301546040518563ffffffff1660e01b81526004016103f694939291906110f5565b600060405180830381600087803b15801561041057600080fd5b505af1158015610424573d6000803e3d6000fd5b50505050817fc41d93b8bfbf9fd7cf5bfe271fd649ab6a6fec0ea101c23b82a2a28eca2533a960405160405180910390a25061045e610d3b565b50565b600360009054906101000a900473ffffffffffffffffffffffffffffffffffffffff1681565b600360009054906101000a900473ffffffffffffffffffffffffffffffffffffffff1673ffffffffffffffffffffffffffffffffffffffff163373ffffffffffffffffffffffffffffffffffffffff1614610517576040517f08c379a000000000000000000000000000000000000000000000000000000000815260040161050e90611199565b60405180910390fd5b6103e881111561055c576040517f08c379a000000000000000000000000000000000000000000000000000000000815260040161055390611205565b60405180910390fd5b8060048190555050565b600260009054906101000a900473ffffffffffffffffffffffffffffffffffffffff1681565b60015481565b61059a610cf5565b600082116105dd576040517f08c379a00000000000000000000000000000000000000000000000000000000081526004016105d490611271565b60405180910390fd5b60008111610620576040517f08c379a0000000000000000000000000000000000000000000000000000000008152600401610617906112dd565b60405180910390fd5b600260009054906101000a900473ffffffffffffffffffffffffffffffffffffffff1673ffffffffffffffffffffffffffffffffffffffff1663f242432a333086866040518563ffffffff1660e01b815260040161068194939291906110f5565b600060405180830381600087803b15801561069b57600080fd5b505af11580156106af573d6000803e3d6000fd5b50505050600160008154809291906106c69061132c565b9190505550600060015490506040518060c001604052808281526020013373ffffffffffffffffffffffffffffffffffffffff16815260200185815260200184815260200183815260200160011515815250600560008381526020019081526020016000206000820151816000015560208201518160010160006101000a81548173ffffffffffffffffffffffffffffffffffffffff021916908373ffffffffffffffffffffffffffffffffffffffff16021790555060408201518160020155606082015181600301556080820151816004015560a08201518160050160006101000a81548160ff0219169083151502179055509050503373ffffffffffffffffffffffffffffffffffffffff16817fd0e2632082726e989c9a9cac6d495b05080e0d6836ee21e07618b32d5719a40486868660405161080893929190611374565b60405180910390a350610819610d3b565b505050565b610826610cf5565b60006005600083815260200190815260200160002090508060050160009054906101000a900460ff1661088e576040517f08c379a000000000000000000000000000000000000000000000000000000000815260040161088590611032565b60405180910390fd5b806004015434146108d4576040517f08c379a00000000000000000000000000000000000000000000000000000000081526004016108cb906113f7565b60405180910390fd5b60008160050160006101000a81548160ff0219169083151502179055506000612710600454346109049190611417565b61090e9190611488565b90506000813461091e91906114b9565b905060008360010160009054906101000a900473ffffffffffffffffffffffffffffffffffffffff1673ffffffffffffffffffffffffffffffffffffffff168260405161096a9061151b565b60006040518083038185875af1925050503d80600081146109a7576040519150601f19603f3d011682016040523d82523d6000602084013e6109ac565b606091505b50509050806109f0576040517f08c379a00000000000000000000000000000000000000000000000000000000081526004016109e79061157c565b60405180910390fd5b6000600360009054906101000a900473ffffffffffffffffffffffffffffffffffffffff1673ffffffffffffffffffffffffffffffffffffffff1684604051610a389061151b565b60006040518083038185875af1925050503d8060008114610a75576040519150601f19603f3d011682016040523d82523d6000602084013e610a7a565b606091505b5050905080610abe576040517f08c379a0000000000000000000000000000000000000000000000000000000008152600401610ab5906115e8565b60405180910390fd5b600260009054906101000a900473ffffffffffffffffffffffffffffffffffffffff1673ffffffffffffffffffffffffffffffffffffffff1663f242432a3033886002015489600301546040518563ffffffff1660e01b8152600401610b2794939291906110f5565b600060405180830381600087803b158015610b4157600080fd5b505af1158015610b55573d6000803e3d6000fd5b505050503373ffffffffffffffffffffffffffffffffffffffff16867ffd51b2c9f55c42d2b72ac683526519563be02fc0107f034ff430c05185ff1b6634604051610ba09190610d5e565b60405180910390a35050505050610bb5610d3b565b50565b60056020528060005260406000206000915090508060000154908060010160009054906101000a900473ffffffffffffffffffffffffffffffffffffffff16908060020154908060030154908060040154908060050160009054906101000a900460ff16905086565b600360009054906101000a900473ffffffffffffffffffffffffffffffffffffffff1673ffffffffffffffffffffffffffffffffffffffff163373ffffffffffffffffffffffffffffffffffffffff1614610cb1576040517f08c379a0000000000000000000000000000000000000000000000000000000008152600401610ca890611654565b60405180910390fd5b80600360006101000a81548173ffffffffffffffffffffffffffffffffffffffff021916908373ffffffffffffffffffffffffffffffffffffffff16021790555050565b600260005403610d31576040517f3ee5aeb500000000000000000000000000000000000000000000000000000000815260040160405180910390fd5b6002600081905550565b6001600081905550565b6000819050919050565b610d5881610d45565b82525050565b6000602082019050610d736000830184610d4f565b92915050565b600080fd5b610d8781610d45565b8114610d9257600080fd5b50565b600081359050610da481610d7e565b92915050565b600060208284031215610dc057610dbf610d79565b5b6000610dce84828501610d95565b91505092915050565b600073ffffffffffffffffffffffffffffffffffffffff82169050919050565b6000610e0282610dd7565b9050919050565b610e1281610df7565b82525050565b6000602082019050610e2d6000830184610e09565b92915050565b6000819050919050565b6000610e58610e53610e4e84610dd7565b610e33565b610dd7565b9050919050565b6000610e6a82610e3d565b9050919050565b6000610e7c82610e5f565b9050919050565b610e8c81610e71565b82525050565b6000602082019050610ea76000830184610e83565b92915050565b600080600060608486031215610ec657610ec5610d79565b5b6000610ed486828701610d95565b9350506020610ee586828701610d95565b9250506040610ef686828701610d95565b9150509250925092565b60008115159050919050565b610f1581610f00565b82525050565b600060c082019050610f306000830189610d4f565b610f3d6020830188610e09565b610f4a6040830187610d4f565b610f576060830186610d4f565b610f646080830185610d4f565b610f7160a0830184610f0c565b979650505050505050565b610f8581610df7565b8114610f9057600080fd5b50565b600081359050610fa281610f7c565b92915050565b600060208284031215610fbe57610fbd610d79565b5b6000610fcc84828501610f93565b91505092915050565b600082825260208201905092915050565b7f4e6f742061637469766500000000000000000000000000000000000000000000600082015250565b600061101c600a83610fd5565b915061102782610fe6565b602082019050919050565b6000602082019050818103600083015261104b8161100f565b9050919050565b7f4e6f742073656c6c657200000000000000000000000000000000000000000000600082015250565b6000611088600a83610fd5565b915061109382611052565b602082019050919050565b600060208201905081810360008301526110b78161107b565b9050919050565b600082825260208201905092915050565b50565b60006110df6000836110be565b91506110ea826110cf565b600082019050919050565b600060a08201905061110a6000830187610e09565b6111176020830186610e09565b6111246040830185610d4f565b6111316060830184610d4f565b8181036080830152611142816110d2565b905095945050505050565b7f4f6e6c7920666565526563697069656e74000000000000000000000000000000600082015250565b6000611183601183610fd5565b915061118e8261114d565b602082019050919050565b600060208201905081810360008301526111b281611176565b9050919050565b7f46656520746f6f206869676820283e3130252900000000000000000000000000600082015250565b60006111ef601383610fd5565b91506111fa826111b9565b602082019050919050565b6000602082019050818103600083015261121e816111e2565b9050919050565b7f616d6f756e74203d203000000000000000000000000000000000000000000000600082015250565b600061125b600a83610fd5565b915061126682611225565b602082019050919050565b6000602082019050818103600083015261128a8161124e565b9050919050565b7f7072696365203d20300000000000000000000000000000000000000000000000600082015250565b60006112c7600983610fd5565b91506112d282611291565b602082019050919050565b600060208201905081810360008301526112f6816112ba565b9050919050565b7f4e487b7100000000000000000000000000000000000000000000000000000000600052601160045260246000fd5b600061133782610d45565b91507fffffffffffffffffffffffffffffffffffffffffffffffffffffffffffffffff8203611369576113686112fd565b5b600182019050919050565b60006060820190506113896000830186610d4f565b6113966020830185610d4f565b6113a36040830184610d4f565b949350505050565b7f496e636f7272656374204554482073656e740000000000000000000000000000600082015250565b60006113e1601283610fd5565b91506113ec826113ab565b602082019050919050565b60006020820190508181036000830152611410816113d4565b9050919050565b600061142282610d45565b915061142d83610d45565b925082820261143b81610d45565b91508282048414831517611452576114516112fd565b5b5092915050565b7f4e487b7100000000000000000000000000000000000000000000000000000000600052601260045260246000fd5b600061149382610d45565b915061149e83610d45565b9250826114ae576114ad611459565b5b828204905092915050565b60006114c482610d45565b91506114cf83610d45565b92508282039050818111156114e7576114e66112fd565b5b92915050565b600081905092915050565b60006115056000836114ed565b9150611510826110cf565b600082019050919050565b6000611526826114f8565b9150819050919050565b7f53656c6c6572207061796d656e74206661696c65640000000000000000000000600082015250565b6000611566601583610fd5565b915061157182611530565b602082019050919050565b6000602082019050818103600083015261159581611559565b9050919050565b7f466565207061796d656e74206661696c65640000000000000000000000000000600082015250565b60006115d2601283610fd5565b91506115dd8261159c565b602082019050919050565b60006020820190508181036000830152611601816115c5565b9050919050565b7f4f6e6c792063757272656e7420666565526563697069656e7400000000000000600082015250565b600061163e601983610fd5565b915061164982611608565b602082019050919050565b6000602082019050818103600083015261166d81611631565b905091905056fea26469706673582212203a6423aba6a341f77df8b9eb864baf05be1d408114443f87d65f0bd0aa46039164736f6c63430008140033",
  "linkReferences": {},
  "deployedLinkReferences": {}
}