{
  "_format": "hh-sol-artifact-1",
  "contractName": "CarbonRegistry",
  "sourceName": "contracts/CarbonRegistry.sol",
  "abi": [
    {
      "inputs": [
        {
          "internalType": "address",
          "name": "_carbonToken",
          "type": "address"
        }
      ],
      "stateMutability": "nonpayable",
      "type": "constructor"
    },
    {
      "inputs": [],
      "name": "AccessControlBadConfirmation",
      "type": "error"
    },
    {
      "inputs": [
        {
          "internalType": "address",
          "name": "account",
          "type": "address"
        },
        {
          "internalType": "bytes32",
          "name": "neededRole",
          "type": "bytes32"
        }
      ],
      "name": "AccessControlUnauthorizedAccount",
      "type": "error"
    },
    {
      "anonymous": false,
      "inputs": [
        {
          "indexed": true,
          "internalType": "uint256",
          "name": "projectId",
          "type": "uint256"
        },
        {
          "indexed": true,
          "internalType": "address",
          "name": "auditor",
          "type": "address"
        }
      ],
      "name": "AuditorAssigned",
      "type": "event"
    },
    {
      "anonymous": false,
      "inputs": [
        {
          "indexed": true,
          "internalType": "uint256",
          "name": "projectId",
          "type": "uint256"
        },
        {
          "indexed": false,
          "internalType": "string",
          "name": "reason",
          "type": "string"
        }
      ],
      "name": "ProjectNeedMoreInfo",
      "type": "event"
    },
    {
      "anonymous": false,
      "inputs": [
        {
          "indexed": true,
          "internalType": "uint256",
          "name": "projectId",
          "type": "uint256"
        },
        {
          "indexed": false,
          "internalType": "string",
          "name": "reason",
          "type": "string"
        }
      ],
      "name": "ProjectRejected",
      "type": "event"
    },
    {
      "anonymous": false,
      "inputs": [
        {
          "indexed": true,
          "internalType": "uint256",
          "name": "projectId",
          "type": "uint256"
        },
        {
          "indexed": true,
          "internalType": "address",
          "name": "owner",
          "type": "address"
        }
      ],
      "name": "ProjectSubmitted",
      "type": "event"
    },
    {
      "anonymous": false,
      "inputs": [
        {
          "indexed": true,
          "internalType": "uint256",
          "name": "projectId",
          "type": "uint256"
        },
        {
          "indexed": false,
          "internalType": "uint256",
          "name": "creditsIssued",
          "type": "uint256"
        }
      ],
      "name": "ProjectVerified",
      "type": "event"
    },
    {
      "anonymous": false,
      "inputs": [
        {
          "indexed": true,
          "internalType": "bytes32",
          "name": "role",
          "type": "bytes32"
        },
        {
          "indexed": true,
          "internalType": "bytes32",
          "name": "previousAdminRole",
          "type": "bytes32"
        },
        {
          "indexed": true,
          "internalType": "bytes32",
          "name": "newAdminRole",
          "type": "bytes32"
        }
      ],
      "name": "RoleAdminChanged",
      "type": "event"
    },
    {
      "anonymous": false,
      "inputs": [
        {
          "indexed": true,
          "internalType": "bytes32",
          "name": "role",
          "type": "bytes32"
        },
        {
          "indexed": true,
          "internalType": "address",
          "name": "account",
          "type": "address"
        },
        {
          "indexed": true,
          "internalType": "address",
          "name": "sender",
          "type": "address"
        }
      ],
      "name": "RoleGranted",
      "type": "event"
    },
    {
      "anonymous": false,
      "inputs": [
        {
          "indexed": true,
          "internalType": "bytes32",
          "name": "role",
          "type": "bytes32"
        },
        {
          "indexed": true,
          "internalType": "address",
          "name": "account",
          "type": "address"
        },
        {
          "indexed": true,
          "internalType": "address",
          "name": "sender",
          "type": "address"
        }
      ],
      "name": "RoleRevoked",
      "type": "event"
    },
    {
      "inputs": [],
      "name": "ADMIN_ROLE",
      "outputs": [
        {
          "internalType": "bytes32",
          "name": "",
          "type": "bytes32"
        }
      ],
      "stateMutability": "view",
      "type": "function"
    },
    {
      "inputs": [],
      "name": "AUDITOR_ROLE",
      "outputs": [
        {
          "internalType": "bytes32",
          "name": "",
          "type": "bytes32"
        }
      ],
      "stateMutability": "view",
      "type": "function"
    },
    {
      "inputs": [],
      "name": "DEFAULT_ADMIN_ROLE",
      "outputs": [
        {
          "internalType": "bytes32",
          "name": "",
          "type": "bytes32"
        }
      ],
      "stateMutability": "view",
      "type": "function"
    },
    {
      "inputs": [
        {
          "internalType": "address",
          "name": "_auditor",
          "type": "address"
        }
      ],
      "name": "addAuditor",
      "outputs": [],
      "stateMutability": "nonpayable",
      "type": "function"
    },
    {
      "inputs": [
        {
          "internalType": "uint256",
          "name": "_projectId",
          "type": "uint256"
        },
        {
          "internalType": "address",
          "name": "_auditor",
          "type": "address"
        }
      ],
      "name": "assignAuditor",
      "outputs": [],
      "stateMutability": "nonpayable",
      "type": "function"
    },
    {
      "inputs": [],
      "name": "carbonToken",
      "outputs": [
        {
          "internalType": "contract CarbonCreditToken",
          "name": "",
          "type": "address"
        }
      ],
      "stateMutability": "view",
      "type": "function"
    },
    {
      "inputs": [
        {
          "internalType": "uint256",
          "name": "_projectId",
          "type": "uint256"
        }
      ],
      "name": "getProject",
      "outputs": [
        {
          "components": [
            {
              "internalType": "uint256",
              "name": "id",
              "type": "uint256"
            },
            {
              "internalType": "address",
              "name": "owner",
              "type": "address"
            },
            {
              "internalType": "string",
              "name": "metaDataURI",
              "type": "string"
            },
            {
              "internalType": "string",
              "name": "projectType",
              "type": "string"
            },
            {
              "internalType": "uint256",
              "name": "requestedCredits",
              "type": "uint256"
            },
            {
              "internalType": "uint256",
              "name": "approvedCredits",
              "type": "uint256"
            },
            {
              "internalType": "address",
              "name": "assignedAuditor",
              "type": "address"
            },
            {
              "internalType": "enum CarbonRegistry.ProjectStatus",
              "name": "status",
              "type": "uint8"
            },
            {
              "internalType": "string",
              "name": "lastComment",
              "type": "string"
            }
          ],
          "internalType": "struct CarbonRegistry.Project",
          "name": "",
          "type": "tuple"
        }
      ],
      "stateMutability": "view",
      "type": "function"
    },
    {
      "inputs": [
        {
          "internalType": "bytes32",
          "name": "role",
          "type": "bytes32"
        }
      ],
      "name": "getRoleAdmin",
      "outputs": [
        {
          "internalType": "bytes32",
          "name": "",
          "type": "bytes32"
        }
      ],
      "stateMutability": "view",
      "type": "function"
    },
    {
      "inputs": [
        {
          "internalType": "bytes32",
          "name": "role",
          "type": "bytes32"
        },
        {
          "internalType": "address",
          "name": "account",
          "type": "address"
        }
      ],
      "name": "grantRole",
      "outputs": [],
      "stateMutability": "nonpayable",
      "type": "function"
    },
    {
      "inputs": [
        {
          "internalType": "bytes32",
          "name": "role",
          "type": "bytes32"
        },
        {
          "internalType": "address",
          "name": "account",
          "type": "address"
        }
      ],
      "name": "hasRole",
      "outputs": [
        {
          "internalType": "bool",
          "name": "",
          "type": "bool"
        }
      ],
      "stateMutability": "view",
      "type": "function"
    },
    {
      "inputs": [],
      "name": "projectCount",
      "outputs": [
        {
          "internalType": "uint256",
          "name": "",
          "type": "uint256"
        }
      ],
      "stateMutability": "view",
      "type": "function"
    },
    {
      "inputs": [
        {
          "internalType": "uint256",
          "name": "",
          "type": "uint256"
        }
      ],
      "name": "projects",
      "outputs": [
        {
          "internalType": "uint256",
          "name": "id",
          "type": "uint256"
        },
        {
          "internalType": "address",
          "name": "owner",
          "type": "address"
        },
        {
          "internalType": "string",
          "name": "metaDataURI",
          "type": "string"
        },
        {
          "internalType": "string",
          "name": "projectType",
          "type": "string"
        },
        {
          "internalType": "uint256",
          "name": "requestedCredits",
          "type": "uint256"
        },
        {
          "internalType": "uint256",
          "name": "approvedCredits",
          "type": "uint256"
        },
        {
          "internalType": "address",
          "name": "assignedAuditor",
          "type": "address"
        },
        {
          "internalType": "enum CarbonRegistry.ProjectStatus",
          "name": "status",
          "type": "uint8"
        },
        {
          "internalType": "string",
          "name": "lastComment",
          "type": "string"
        }
      ],
      "stateMutability": "view",
      "type": "function"
    },
    {
      "inputs": [
        {
          "internalType": "uint256",
          "name": "_projectId",
          "type": "uint256"
        },
        {
          "internalType": "string",
          "name": "_reason",
          "type": "string"
        }
      ],
      "name": "rejectProject",
      "outputs": [],
      "stateMutability": "nonpayable",
      "type": "function"
    },
    {
      "inputs": [
        {
          "internalType": "bytes32",
          "name": "role",
          "type": "bytes32"
        },
        {
          "internalType": "address",
          "name": "callerConfirmation",
          "type": "address"
        }
      ],
      "name": "renounceRole",
      "outputs": [],
      "stateMutability": "nonpayable",
      "type": "function"
    },
    {
      "inputs": [
        {
          "internalType": "uint256",
          "name": "_projectId",
          "type": "uint256"
        },
        {
          "internalType": "string",
          "name": "_reason",
          "type": "string"
        }
      ],
      "name": "requestMoreInfo",
      "outputs": [],
      "stateMutability": "nonpayable",
      "type": "function"
    },
    {
      "inputs": [
        {
          "internalType": "bytes32",
          "name": "role",
          "type": "bytes32"
        },
        {
          "internalType": "address",
          "name": "account",
          "type": "address"
        }
      ],
      "name": "revokeRole",
      "outputs": [],
      "stateMutability": "nonpayable",
      "type": "function"
    },
    {
      "inputs": [
        {
          "internalType": "string",
          "name": "_metaDataURI",
          "type": "string"
        },
        {
          "internalType": "string",
          "name": "_projectType",
          "type": "string"
        },
        {
          "internalType": "uint256",
          "name": "_requestedCredits",
          "type": "uint256"
        }
      ],
      "name": "submitProject",
      "outputs": [
        {
          "internalType": "uint256",
          "name": "",
          "type": "uint256"
        }
      ],
      "stateMutability": "nonpayable",
      "type": "function"
    },
    {
      "inputs": [
        {
          "internalType": "bytes4",
          "name": "interfaceId",
          "type": "bytes4"
        }
      ],
      "name": "supportsInterface",
      "outputs": [
        {
          "internalType": "bool",
          "name": "",
          "type": "bool"
        }
      ],
      "stateMutability": "view",
      "type": "function"
    },
    {
      "inputs": [
        {
          "internalType": "uint256",
          "name": "_projectId",
          "type": "uint256"
        },
        {
          "internalType": "uint256",
          "name": "_approvedCredits",
          "type": "uint256"
        }
      ],
      "name": "verifyProject",
      "outputs": [],
      "stateMutability": "nonpayable",
      "type": "function"
    }
  ],
  "bytecode": "0x60806040523480156200001157600080fd5b5060405162002eb938038062002eb98339818101604052810190620000379190620002a7565b6200004c6000801b33620000c860201b60201c565b506200007f7fa49807205ce4d355092ef5a8a18f56e8913cf4a201fbe287825b095693c2177533620000c860201b60201c565b5080600260006101000a81548173ffffffffffffffffffffffffffffffffffffffff021916908373ffffffffffffffffffffffffffffffffffffffff16021790555050620002d9565b6000620000dc8383620001cb60201b60201c565b620001c057600160008085815260200190815260200160002060000160008473ffffffffffffffffffffffffffffffffffffffff1673ffffffffffffffffffffffffffffffffffffffff16815260200190815260200160002060006101000a81548160ff0219169083151502179055506200015c6200023560201b60201c565b73ffffffffffffffffffffffffffffffffffffffff168273ffffffffffffffffffffffffffffffffffffffff16847f2f8788117e7eff1d82e926ec794901d17c78024a50270940304540a733656f0d60405160405180910390a460019050620001c5565b600090505b92915050565b600080600084815260200190815260200160002060000160008373ffffffffffffffffffffffffffffffffffffffff1673ffffffffffffffffffffffffffffffffffffffff16815260200190815260200160002060009054906101000a900460ff16905092915050565b600033905090565b600080fd5b600073ffffffffffffffffffffffffffffffffffffffff82169050919050565b60006200026f8262000242565b9050919050565b620002818162000262565b81146200028d57600080fd5b50565b600081519050620002a18162000276565b92915050565b600060208284031215620002c057620002bf6200023d565b5b6000620002d08482850162000290565b91505092915050565b612bd080620002e96000396000f3fe608060405234801561001057600080fd5b50600436106101215760003560e01c80633f94d628116100ad578063a217fddf11610071578063a217fddf14610322578063d547741f14610340578063de63d7ca1461035c578063e429cef114610378578063f0f3f2c81461039457610121565b80633f94d628146102685780636e1d616e1461029857806375b238fc146102b657806382a71ef2146102d457806391d14854146102f257610121565b806321f1a17f116100f457806321f1a17f146101c6578063248a9ca3146101e25780632f2ff15d1461021257806336568abe1461022e57806336fbad261461024a57610121565b806301ffc9a714610126578063086a8a8714610156578063107046bd1461017257806312e4bfab146101aa575b600080fd5b610140600480360381019061013b9190611b1b565b6103c4565b60405161014d9190611b63565b60405180910390f35b610170600480360381019061016b9190611c19565b61043e565b005b61018c60048036038101906101879190611c79565b61065e565b6040516101a199989796959493929190611dfd565b60405180910390f35b6101c460048036038101906101bf9190611ecb565b610891565b005b6101e060048036038101906101db9190611c19565b610a3c565b005b6101fc60048036038101906101f79190611f41565b610c5d565b6040516102099190611f7d565b60405180910390f35b61022c60048036038101906102279190611f98565b610c7c565b005b61024860048036038101906102439190611f98565b610c9e565b005b610252610d19565b60405161025f9190611fd8565b60405180910390f35b610282600480360381019061027d9190611ff3565b610d1f565b60405161028f9190611fd8565b60405180910390f35b6102a0611020565b6040516102ad9190611f7d565b60405180910390f35b6102be611044565b6040516102cb9190611f7d565b60405180910390f35b6102dc611068565b6040516102e991906120e7565b60405180910390f35b61030c60048036038101906103079190611f98565b61108e565b6040516103199190611b63565b60405180910390f35b61032a6110f8565b6040516103379190611f7d565b60405180910390f35b61035a60048036038101906103559190611f98565b6110ff565b005b61037660048036038101906103719190612102565b611121565b005b610392600480360381019061038d9190612142565b611433565b005b6103ae60048036038101906103a99190611c79565b61148c565b6040516103bb91906122b9565b60405180910390f35b60007f7965db0b000000000000000000000000000000000000000000000000000000007bffffffffffffffffffffffffffffffffffffffffffffffffffffffff1916827bffffffffffffffffffffffffffffffffffffffffffffffffffffffff19161480610437575061043682611775565b5b9050919050565b7f59a1c48e5837ad7a7f3dcedcbe129bf3249ec4fbf651fd4f5e2600ead39fe2f5610468816117df565b833373ffffffffffffffffffffffffffffffffffffffff166003600083815260200190815260200160002060060160009054906101000a900473ffffffffffffffffffffffffffffffffffffffff1673ffffffffffffffffffffffffffffffffffffffff161461050d576040517f08c379a000000000000000000000000000000000000000000000000000000000815260040161050490612327565b60405180910390fd5b60006003600087815260200190815260200160002090506001600481111561053857610537611d86565b5b8160060160149054906101000a900460ff16600481111561055c5761055b611d86565b5b148061059c575060048081111561057657610575611d86565b5b8160060160149054906101000a900460ff16600481111561059a57610599611d86565b5b145b6105db576040517f08c379a00000000000000000000000000000000000000000000000000000000081526004016105d290612393565b60405180910390fd5b60038160060160146101000a81548160ff0219169083600481111561060357610602611d86565b5b0217905550848482600701918261061b9291906125ef565b50857f04c4bc2e5efa798b7fa128e224a88e0ac9420f33e8a2706d3e3b6280c3f422f6868660405161064e9291906126fb565b60405180910390a2505050505050565b60036020528060005260406000206000915090508060000154908060010160009054906101000a900473ffffffffffffffffffffffffffffffffffffffff16908060020180546106ad9061241c565b80601f01602080910402602001604051908101604052809291908181526020018280546106d99061241c565b80156107265780601f106106fb57610100808354040283529160200191610726565b820191906000526020600020905b81548152906001019060200180831161070957829003601f168201915b50505050509080600301805461073b9061241c565b80601f01602080910402602001604051908101604052809291908181526020018280546107679061241c565b80156107b45780601f10610789576101008083540402835291602001916107b4565b820191906000526020600020905b81548152906001019060200180831161079757829003601f168201915b5050505050908060040154908060050154908060060160009054906101000a900473ffffffffffffffffffffffffffffffffffffffff16908060060160149054906101000a900460ff169080600701805461080e9061241c565b80601f016020809104026020016040519081016040528092919081815260200182805461083a9061241c565b80156108875780601f1061085c57610100808354040283529160200191610887565b820191906000526020600020905b81548152906001019060200180831161086a57829003601f168201915b5050505050905089565b7fa49807205ce4d355092ef5a8a18f56e8913cf4a201fbe287825b095693c217756108bb816117df565b60006003600085815260200190815260200160002090506000816000015403610919576040517f08c379a00000000000000000000000000000000000000000000000000000000081526004016109109061276b565b60405180910390fd5b6109437f59a1c48e5837ad7a7f3dcedcbe129bf3249ec4fbf651fd4f5e2600ead39fe2f58461108e565b610982576040517f08c379a0000000000000000000000000000000000000000000000000000000008152600401610979906127d7565b60405180910390fd5b828160060160006101000a81548173ffffffffffffffffffffffffffffffffffffffff021916908373ffffffffffffffffffffffffffffffffffffffff16021790555060018160060160146101000a81548160ff021916908360048111156109ed576109ec611d86565b5b02179055508273ffffffffffffffffffffffffffffffffffffffff16847fa726f44c951dc5b9682833688ff307aa831c8736f8edf5a12bcb962a5a6c3d0960405160405180910390a350505050565b7f59a1c48e5837ad7a7f3dcedcbe129bf3249ec4fbf651fd4f5e2600ead39fe2f5610a66816117df565b833373ffffffffffffffffffffffffffffffffffffffff166003600083815260200190815260200160002060060160009054906101000a900473ffffffffffffffffffffffffffffffffffffffff1673ffffffffffffffffffffffffffffffffffffffff1614610b0b576040517f08c379a0000000000000000000000000000000000000000000000000000000008152600401610b0290612327565b60405180910390fd5b600060036000878152602001908152602001600020905060016004811115610b3657610b35611d86565b5b8160060160149054906101000a900460ff166004811115610b5a57610b59611d86565b5b1480610b9b575060006004811115610b7557610b74611d86565b5b8160060160149054906101000a900460ff166004811115610b9957610b98611d86565b5b145b610bda576040517f08c379a0000000000000000000000000000000000000000000000000000000008152600401610bd190612843565b60405180910390fd5b60048160060160146101000a81548160ff02191690836004811115610c0257610c01611d86565b5b02179055508484826007019182610c1a9291906125ef565b50857f1d81b86f9024fa46de22f6befac541d2dc3f784bef2973437a3614b33b67d4e68686604051610c4d9291906126fb565b60405180910390a2505050505050565b6000806000838152602001908152602001600020600101549050919050565b610c8582610c5d565b610c8e816117df565b610c9883836117f3565b50505050565b610ca66118e4565b73ffffffffffffffffffffffffffffffffffffffff168173ffffffffffffffffffffffffffffffffffffffff1614610d0a576040517f6697b23200000000000000000000000000000000000000000000000000000000815260040160405180910390fd5b610d1482826118ec565b505050565b60015481565b6000808211610d63576040517f08c379a0000000000000000000000000000000000000000000000000000000008152600401610d5a906128af565b60405180910390fd5b60016000815480929190610d76906128fe565b9190505550600060015490506040518061012001604052808281526020013373ffffffffffffffffffffffffffffffffffffffff16815260200188888080601f016020809104026020016040519081016040528093929190818152602001838380828437600081840152601f19601f82011690508083019250505050505050815260200186868080601f016020809104026020016040519081016040528093929190818152602001838380828437600081840152601f19601f82011690508083019250505050505050815260200184815260200160008152602001600073ffffffffffffffffffffffffffffffffffffffff16815260200160006004811115610e8257610e81611d86565b5b815260200160405180602001604052806000815250815250600360008381526020019081526020016000206000820151816000015560208201518160010160006101000a81548173ffffffffffffffffffffffffffffffffffffffff021916908373ffffffffffffffffffffffffffffffffffffffff1602179055506040820151816002019081610f139190612946565b506060820151816003019081610f299190612946565b506080820151816004015560a0820151816005015560c08201518160060160006101000a81548173ffffffffffffffffffffffffffffffffffffffff021916908373ffffffffffffffffffffffffffffffffffffffff16021790555060e08201518160060160146101000a81548160ff02191690836004811115610fb057610faf611d86565b5b0217905550610100820151816007019081610fcb9190612946565b509050503373ffffffffffffffffffffffffffffffffffffffff16817f22eb44677349043faa70ae1c857bc016d223f2d92e34ffde97179347f18c8d5d60405160405180910390a38091505095945050505050565b7f59a1c48e5837ad7a7f3dcedcbe129bf3249ec4fbf651fd4f5e2600ead39fe2f581565b7fa49807205ce4d355092ef5a8a18f56e8913cf4a201fbe287825b095693c2177581565b600260009054906101000a900473ffffffffffffffffffffffffffffffffffffffff1681565b600080600084815260200190815260200160002060000160008373ffffffffffffffffffffffffffffffffffffffff1673ffffffffffffffffffffffffffffffffffffffff16815260200190815260200160002060009054906101000a900460ff16905092915050565b6000801b81565b61110882610c5d565b611111816117df565b61111b83836118ec565b50505050565b7f59a1c48e5837ad7a7f3dcedcbe129bf3249ec4fbf651fd4f5e2600ead39fe2f561114b816117df565b823373ffffffffffffffffffffffffffffffffffffffff166003600083815260200190815260200160002060060160009054906101000a900473ffffffffffffffffffffffffffffffffffffffff1673ffffffffffffffffffffffffffffffffffffffff16146111f0576040517f08c379a00000000000000000000000000000000000000000000000000000000081526004016111e790612327565b60405180910390fd5b60006003600086815260200190815260200160002090506001600481111561121b5761121a611d86565b5b8160060160149054906101000a900460ff16600481111561123f5761123e611d86565b5b1461127f576040517f08c379a000000000000000000000000000000000000000000000000000000000815260040161127690612a64565b60405180910390fd5b600084116112c2576040517f08c379a00000000000000000000000000000000000000000000000000000000081526004016112b9906128af565b60405180910390fd5b8060040154841115611309576040517f08c379a000000000000000000000000000000000000000000000000000000000815260040161130090612ad0565b60405180910390fd5b83816005018190555060028160060160146101000a81548160ff0219169083600481111561133a57611339611d86565b5b0217905550600260009054906101000a900473ffffffffffffffffffffffffffffffffffffffff1673ffffffffffffffffffffffffffffffffffffffff1663731133e98260010160009054906101000a900473ffffffffffffffffffffffffffffffffffffffff1687876040518463ffffffff1660e01b81526004016113c293929190612b27565b600060405180830381600087803b1580156113dc57600080fd5b505af11580156113f0573d6000803e3d6000fd5b50505050847f051deb1bc4d34dca3248a2b7a5c31d2e05a2c6f8bab99a6dbe121308e4d921ae856040516114249190611fd8565b60405180910390a25050505050565b7fa49807205ce4d355092ef5a8a18f56e8913cf4a201fbe287825b095693c2177561145d816117df565b6114877f59a1c48e5837ad7a7f3dcedcbe129bf3249ec4fbf651fd4f5e2600ead39fe2f5836117f3565b505050565b611494611a2f565b6003600083815260200190815260200160002060405180610120016040529081600082015481526020016001820160009054906101000a900473ffffffffffffffffffffffffffffffffffffffff1673ffffffffffffffffffffffffffffffffffffffff1673ffffffffffffffffffffffffffffffffffffffff1681526020016002820180546115239061241c565b80601f016020809104026020016040519081016040528092919081815260200182805461154f9061241c565b801561159c5780601f106115715761010080835404028352916020019161159c565b820191906000526020600020905b81548152906001019060200180831161157f57829003601f168201915b505050505081526020016003820180546115b59061241c565b80601f01602080910402602001604051908101604052809291908181526020018280546115e19061241c565b801561162e5780601f106116035761010080835404028352916020019161162e565b820191906000526020600020905b81548152906001019060200180831161161157829003601f168201915b5050505050815260200160048201548152602001600582015481526020016006820160009054906101000a900473ffffffffffffffffffffffffffffffffffffffff1673ffffffffffffffffffffffffffffffffffffffff1673ffffffffffffffffffffffffffffffffffffffff1681526020016006820160149054906101000a900460ff1660048111156116c6576116c5611d86565b5b60048111156116d8576116d7611d86565b5b81526020016007820180546116ec9061241c565b80601f01602080910402602001604051908101604052809291908181526020018280546117189061241c565b80156117655780601f1061173a57610100808354040283529160200191611765565b820191906000526020600020905b81548152906001019060200180831161174857829003601f168201915b5050505050815250509050919050565b60007f01ffc9a7000000000000000000000000000000000000000000000000000000007bffffffffffffffffffffffffffffffffffffffffffffffffffffffff1916827bffffffffffffffffffffffffffffffffffffffffffffffffffffffff1916149050919050565b6117f0816117eb6118e4565b6119de565b50565b60006117ff838361108e565b6118d957600160008085815260200190815260200160002060000160008473ffffffffffffffffffffffffffffffffffffffff1673ffffffffffffffffffffffffffffffffffffffff16815260200190815260200160002060006101000a81548160ff0219169083151502179055506118766118e4565b73ffffffffffffffffffffffffffffffffffffffff168273ffffffffffffffffffffffffffffffffffffffff16847f2f8788117e7eff1d82e926ec794901d17c78024a50270940304540a733656f0d60405160405180910390a4600190506118de565b600090505b92915050565b600033905090565b60006118f8838361108e565b156119d357600080600085815260200190815260200160002060000160008473ffffffffffffffffffffffffffffffffffffffff1673ffffffffffffffffffffffffffffffffffffffff16815260200190815260200160002060006101000a81548160ff0219169083151502179055506119706118e4565b73ffffffffffffffffffffffffffffffffffffffff168273ffffffffffffffffffffffffffffffffffffffff16847ff6391f5c32d9c69d2a47ea670b442974b53935d1edc7fd64eb21e047a839171b60405160405180910390a4600190506119d8565b600090505b92915050565b6119e8828261108e565b611a2b5780826040517fe2517d3f000000000000000000000000000000000000000000000000000000008152600401611a22929190612b71565b60405180910390fd5b5050565b60405180610120016040528060008152602001600073ffffffffffffffffffffffffffffffffffffffff16815260200160608152602001606081526020016000815260200160008152602001600073ffffffffffffffffffffffffffffffffffffffff16815260200160006004811115611aac57611aab611d86565b5b8152602001606081525090565b600080fd5b600080fd5b60007fffffffff0000000000000000000000000000000000000000000000000000000082169050919050565b611af881611ac3565b8114611b0357600080fd5b50565b600081359050611b1581611aef565b92915050565b600060208284031215611b3157611b30611ab9565b5b6000611b3f84828501611b06565b91505092915050565b60008115159050919050565b611b5d81611b48565b82525050565b6000602082019050611b786000830184611b54565b92915050565b6000819050919050565b611b9181611b7e565b8114611b9c57600080fd5b50565b600081359050611bae81611b88565b92915050565b600080fd5b600080fd5b600080fd5b60008083601f840112611bd957611bd8611bb4565b5b8235905067ffffffffffffffff811115611bf657611bf5611bb9565b5b602083019150836001820283011115611c1257611c11611bbe565b5b9250929050565b600080600060408486031215611c3257611c31611ab9565b5b6000611c4086828701611b9f565b935050602084013567ffffffffffffffff811115611c6157611c60611abe565b5b611c6d86828701611bc3565b92509250509250925092565b600060208284031215611c8f57611c8e611ab9565b5b6000611c9d84828501611b9f565b91505092915050565b611caf81611b7e565b82525050565b600073ffffffffffffffffffffffffffffffffffffffff82169050919050565b6000611ce082611cb5565b9050919050565b611cf081611cd5565b82525050565b600081519050919050565b600082825260208201905092915050565b60005b83811015611d30578082015181840152602081019050611d15565b60008484015250505050565b6000601f19601f8301169050919050565b6000611d5882611cf6565b611d628185611d01565b9350611d72818560208601611d12565b611d7b81611d3c565b840191505092915050565b7f4e487b7100000000000000000000000000000000000000000000000000000000600052602160045260246000fd5b60058110611dc657611dc5611d86565b5b50565b6000819050611dd782611db5565b919050565b6000611de782611dc9565b9050919050565b611df781611ddc565b82525050565b600061012082019050611e13600083018c611ca6565b611e20602083018b611ce7565b8181036040830152611e32818a611d4d565b90508181036060830152611e468189611d4d565b9050611e556080830188611ca6565b611e6260a0830187611ca6565b611e6f60c0830186611ce7565b611e7c60e0830185611dee565b818103610100830152611e8f8184611d4d565b90509a9950505050505050505050565b611ea881611cd5565b8114611eb357600080fd5b50565b600081359050611ec581611e9f565b92915050565b60008060408385031215611ee257611ee1611ab9565b5b6000611ef085828601611b9f565b9250506020611f0185828601611eb6565b9150509250929050565b6000819050919050565b611f1e81611f0b565b8114611f2957600080fd5b50565b600081359050611f3b81611f15565b92915050565b600060208284031215611f5757611f56611ab9565b5b6000611f6584828501611f2c565b91505092915050565b611f7781611f0b565b82525050565b6000602082019050611f926000830184611f6e565b92915050565b60008060408385031215611faf57611fae611ab9565b5b6000611fbd85828601611f2c565b9250506020611fce85828601611eb6565b9150509250929050565b6000602082019050611fed6000830184611ca6565b92915050565b60008060008060006060868803121561200f5761200e611ab9565b5b600086013567ffffffffffffffff81111561202d5761202c611abe565b5b61203988828901611bc3565b9550955050602086013567ffffffffffffffff81111561205c5761205b611abe565b5b61206888828901611bc3565b9350935050604061207b88828901611b9f565b9150509295509295909350565b6000819050919050565b60006120ad6120a86120a384611cb5565b612088565b611cb5565b9050919050565b60006120bf82612092565b9050919050565b60006120d1826120b4565b9050919050565b6120e1816120c6565b82525050565b60006020820190506120fc60008301846120d8565b92915050565b6000806040838503121561211957612118611ab9565b5b600061212785828601611b9f565b925050602061213885828601611b9f565b9150509250929050565b60006020828403121561215857612157611ab9565b5b600061216684828501611eb6565b91505092915050565b61217881611b7e565b82525050565b61218781611cd5565b82525050565b600082825260208201905092915050565b60006121a982611cf6565b6121b3818561218d565b93506121c3818560208601611d12565b6121cc81611d3c565b840191505092915050565b6121e081611ddc565b82525050565b6000610120830160008301516121ff600086018261216f565b506020830151612212602086018261217e565b506040830151848203604086015261222a828261219e565b91505060608301518482036060860152612244828261219e565b9150506080830151612259608086018261216f565b5060a083015161226c60a086018261216f565b5060c083015161227f60c086018261217e565b5060e083015161229260e08601826121d7565b506101008301518482036101008601526122ac828261219e565b9150508091505092915050565b600060208201905081810360008301526122d381846121e6565b905092915050565b7f4e6f742061737369676e65642061756469746f72000000000000000000000000600082015250565b6000612311601483611d01565b915061231c826122db565b602082019050919050565b6000602082019050818103600083015261234081612304565b9050919050565b7f4e6f7420696e2072657669657720737461746500000000000000000000000000600082015250565b600061237d601383611d01565b915061238882612347565b602082019050919050565b600060208201905081810360008301526123ac81612370565b9050919050565b600082905092915050565b7f4e487b7100000000000000000000000000000000000000000000000000000000600052604160045260246000fd5b7f4e487b7100000000000000000000000000000000000000000000000000000000600052602260045260246000fd5b6000600282049050600182168061243457607f821691505b602082108103612447576124466123ed565b5b50919050565b60008190508160005260206000209050919050565b60006020601f8301049050919050565b600082821b905092915050565b6000600883026124af7fffffffffffffffffffffffffffffffffffffffffffffffffffffffffffffffff82612472565b6124b98683612472565b95508019841693508086168417925050509392505050565b60006124ec6124e76124e284611b7e565b612088565b611b7e565b9050919050565b6000819050919050565b612506836124d1565b61251a612512826124f3565b84845461247f565b825550505050565b600090565b61252f612522565b61253a8184846124fd565b505050565b5b8181101561255e57612553600082612527565b600181019050612540565b5050565b601f8211156125a3576125748161244d565b61257d84612462565b8101602085101561258c578190505b6125a061259885612462565b83018261253f565b50505b505050565b600082821c905092915050565b60006125c6600019846008026125a8565b1980831691505092915050565b60006125df83836125b5565b9150826002028217905092915050565b6125f983836123b3565b67ffffffffffffffff811115612612576126116123be565b5b61261c825461241c565b612627828285612562565b6000601f8311600181146126565760008415612644578287013590505b61264e85826125d3565b8655506126b6565b601f1984166126648661244d565b60005b8281101561268c57848901358255600182019150602085019450602081019050612667565b868310156126a957848901356126a5601f8916826125b5565b8355505b6001600288020188555050505b50505050505050565b82818337600083830152505050565b60006126da8385611d01565b93506126e78385846126bf565b6126f083611d3c565b840190509392505050565b600060208201905081810360008301526127168184866126ce565b90509392505050565b7f50726f6a656374206e6f7420666f756e64000000000000000000000000000000600082015250565b6000612755601183611d01565b91506127608261271f565b602082019050919050565b6000602082019050818103600083015261278481612748565b9050919050565b7f4e6f7420616e2061756469746f72000000000000000000000000000000000000600082015250565b60006127c1600e83611d01565b91506127cc8261278b565b602082019050919050565b600060208201905081810360008301526127f0816127b4565b9050919050565b7f496e76616c696420737461746500000000000000000000000000000000000000600082015250565b600061282d600d83611d01565b9150612838826127f7565b602082019050919050565b6000602082019050818103600083015261285c81612820565b9050919050565b7f43726564697473206d757374206265203e203000000000000000000000000000600082015250565b6000612899601383611d01565b91506128a482612863565b602082019050919050565b600060208201905081810360008301526128c88161288c565b9050919050565b7f4e487b7100000000000000000000000000000000000000000000000000000000600052601160045260246000fd5b600061290982611b7e565b91507fffffffffffffffffffffffffffffffffffffffffffffffffffffffffffffffff820361293b5761293a6128cf565b5b600182019050919050565b61294f82611cf6565b67ffffffffffffffff811115612968576129676123be565b5b612972825461241c565b61297d828285612562565b600060209050601f8311600181146129b0576000841561299e578287015190505b6129a885826125d3565b865550612a10565b601f1984166129be8661244d565b60005b828110156129e6578489015182556001820191506020850194506020810190506129c1565b86831015612a0357848901516129ff601f8916826125b5565b8355505b6001600288020188555050505b505050505050565b7f4e6f7420696e2041737369676e65642073746174650000000000000000000000600082015250565b6000612a4e601583611d01565b9150612a5982612a18565b602082019050919050565b60006020820190508181036000830152612a7d81612a41565b9050919050565b7f546f6f206d616e79206372656469747300000000000000000000000000000000600082015250565b6000612aba601083611d01565b9150612ac582612a84565b602082019050919050565b60006020820190508181036000830152612ae981612aad565b9050919050565b600082825260208201905092915050565b50565b6000612b11600083612af0565b9150612b1c82612b01565b600082019050919050565b6000608082019050612b3c6000830186611ce7565b612b496020830185611ca6565b612b566040830184611ca6565b8181036060830152612b6781612b04565b9050949350505050565b6000604082019050612b866000830185611ce7565b612b936020830184611f6e565b939250505056fea2646970667358221220571b007a54fef8ae5e6f1edb3de090dfc3bfed5de656855d4d545daefdddbe7164736f6c63430008140033",
  "linkReferences": {},
  "deployedLinkReferences": {}
}