{
  "_format": "hh-sol-artifact-1",
  "contractName": "CarbonCreditToken",
  "sourceName": "contracts/CarbonCreditToken.sol",
  "abi": [
    {
      "inputs": [
        {
          "internalType": "string",
          "name": "_uri",
          "type": "string"
        }
      ],
      "stateMutability": "nonpayable",
      "type": "constructor"
    },
    {
      "inputs": [],
      "name": "AccessControlBadConfirmation",
      "type": "error"
    },
    {
      "inputs": [
        {
          "internalType": "address",
          "name": "account",
          "type": "address"
        },
        {
          "internalType": "bytes32",
          "name": "neededRole",
          "type": "bytes32"
        }
      ],
      "name": "AccessControlUnauthorizedAccount",
      "type": "error"
    },
    {
      "inputs": [
        {
          "internalType": "address",
          "name": "sender",
          "type": "address"
        },
        {
          "internalType": "uint256",
          "name": "balance",
          "type": "uint256"
        },
        {
          "internalType": "uint256",
          "name": "needed",
          "type": "uint256"
        },
        {
          "internalType": "uint256",
          "name": "tokenId",
          "type": "uint256"
        }
      ],
      "name": "ERC1155InsufficientBalance",
      "type": "error"
    },
    {
      "inputs": [
        {
          "internalType": "address",
          "name": "approver",
          "type": "address"
        }
      ],
      "name": "ERC1155InvalidApprover",
      "type": "error"
    },
    {
      "inputs": [
        {
          "internalType": "uint256",
          "name": "idsLength",
          "type": "uint256"
        },
        {
          "internalType": "uint256",
          "name": "valuesLength",
          "type": "uint256"
        }
      ],
      "name": "ERC1155InvalidArrayLength",
      "type": "error"
    },
    {
      "inputs": [
        {
          "internalType": "address",
          "name": "operator",
          "type": "address"
        }
      ],
      "name": "ERC1155InvalidOperator",
      "type": "error"
    },
    {
      "inputs": [
        {
          "internalType": "address",
          "name": "receiver",
          "type": "address"
        }
      ],
      "name": "ERC1155InvalidReceiver",
      "type": "error"
    },
    {
      "inputs": [
        {
          "internalType": "address",
          "name": "sender",
          "type": "address"
        }
      ],
      "name": "ERC1155InvalidSender",
      "type": "error"
    },
    {
      "inputs": [
        {
          "internalType": "address",
          "name": "operator",
          "type": "address"
        },
        {
          "internalType": "address",
          "name": "owner",
          "type": "address"
        }
      ],
      "name": "ERC1155MissingApprovalForAll",
      "type": "error"
    },
    {
      "anonymous": false,
      "inputs": [
        {
          "indexed": true,
          "internalType": "address",
          "name": "account",
          "type": "address"
        },
        {
          "indexed": true,
          "internalType": "address",
          "name": "operator",
          "type": "address"
        },
        {
          "indexed": false,
          "internalType": "bool",
          "name": "approved",
          "type": "bool"
        }
      ],
      "name": "ApprovalForAll",
      "type": "event"
    },
    {
      "anonymous": false,
      "inputs": [
        {
          "indexed": true,
          "internalType": "bytes32",
          "name": "role",
          "type": "bytes32"
        },
        {
          "indexed": true,
          "internalType": "bytes32",
          "name": "previousAdminRole",
          "type": "bytes32"
        },
        {
          "indexed": true,
          "internalType": "bytes32",
          "name": "newAdminRole",
          "type": "bytes32"
        }
      ],
      "name": "RoleAdminChanged",
      "type": "event"
    },
    {
      "anonymous": false,
      "inputs": [
        {
          "indexed": true,
          "internalType": "bytes32",
          "name": "role",
          "type": "bytes32"
        },
        {
          "indexed": true,
          "internalType": "address",
          "name": "account",
          "type": "address"
        },
        {
          "indexed": true,
          "internalType": "address",
          "name": "sender",
          "type": "address"
        }
      ],
      "name": "RoleGranted",
      "type": "event"
    },
    {
      "anonymous": false,
      "inputs": [
        {
          "indexed": true,
          "internalType": "bytes32",
          "name": "role",
          "type": "bytes32"
        },
        {
          "indexed": true,
          "internalType": "address",
          "name": "account",
          "type": "address"
        },
        {
          "indexed": true,
          "internalType": "address",
          "name": "sender",
          "type": "address"
        }
      ],
      "name": "RoleRevoked",
      "type": "event"
    },
    {
      "anonymous": false,
      "inputs": [
        {
          "indexed": true,
          "internalType": "address",
          "name": "operator",
          "type": "address"
        },
        {
          "indexed": true,
          "internalType": "address",
          "name": "from",
          "type": "address"
        },
        {
          "indexed": true,
          "internalType": "address",
          "name": "to",
          "type": "address"
        },
        {
          "indexed": false,
          "internalType": "uint256[]",
          "name": "ids",
          "type": "uint256[]"
        },
        {
          "indexed": false,
          "internalType": "uint256[]",
          "name": "values",
          "type": "uint256[]"
        }
      ],
      "name": "TransferBatch",
      "type": "event"
    },
    {
      "anonymous": false,
      "inputs": [
        {
          "indexed": true,
          "internalType": "address",
          "name": "operator",
          "type": "address"
        },
        {
          "indexed": true,
          "internalType": "address",
          "name": "from",
          "type": "address"
        },
        {
          "indexed": true,
          "internalType": "address",
          "name": "to",
          "type": "address"
        },
        {
          "indexed": false,
          "internalType": "uint256",
          "name": "id",
          "type": "uint256"
        },
        {
          "indexed": false,
          "internalType": "uint256",
          "name": "value",
          "type": "uint256"
        }
      ],
      "name": "TransferSingle",
      "type": "event"
    },
    {
      "anonymous": false,
      "inputs": [
        {
          "indexed": false,
          "internalType": "string",
          "name": "value",
          "type": "string"
        },
        {
          "indexed": true,
          "internalType": "uint256",
          "name": "id",
          "type": "uint256"
        }
      ],
      "name": "URI",
      "type": "event"
    },
    {
      "inputs": [],
      "name": "DEFAULT_ADMIN_ROLE",
      "outputs": [
        {
          "internalType": "bytes32",
          "name": "",
          "type": "bytes32"
        }
      ],
      "stateMutability": "view",
      "type": "function"
    },
    {
      "inputs": [],
      "name": "MINTER_ROLE",
      "outputs": [
        {
          "internalType": "bytes32",
          "name": "",
          "type": "bytes32"
        }
      ],
      "stateMutability": "view",
      "type": "function"
    },
    {
      "inputs": [
        {
          "internalType": "address",
          "name": "account",
          "type": "address"
        },
        {
          "internalType": "uint256",
          "name": "id",
          "type": "uint256"
        }
      ],
      "name": "balanceOf",
      "outputs": [
        {
          "internalType": "uint256",
          "name": "",
          "type": "uint256"
        }
      ],
      "stateMutability": "view",
      "type": "function"
    },
    {
      "inputs": [
        {
          "internalType": "address[]",
          "name": "accounts",
          "type": "address[]"
        },
        {
          "internalType": "uint256[]",
          "name": "ids",
          "type": "uint256[]"
        }
      ],
      "name": "balanceOfBatch",
      "outputs": [
        {
          "internalType": "uint256[]",
          "name": "",
          "type": "uint256[]"
        }
      ],
      "stateMutability": "view",
      "type": "function"
    },
    {
      "inputs": [
        {
          "internalType": "address",
          "name": "account",
          "type": "address"
        },
        {
          "internalType": "uint256",
          "name": "projectId",
          "type": "uint256"
        },
        {
          "internalType": "uint256",
          "name": "amount",
          "type": "uint256"
        }
      ],
      "name": "burn",
      "outputs": [],
      "stateMutability": "nonpayable",
      "type": "function"
    },
    {
      "inputs": [
        {
          "internalType": "bytes32",
          "name": "role",
          "type": "bytes32"
        }
      ],
      "name": "getRoleAdmin",
      "outputs": [
        {
          "internalType": "bytes32",
          "name": "",
          "type": "bytes32"
        }
      ],
      "stateMutability": "view",
      "type": "function"
    },
    {
      "inputs": [
        {
          "internalType": "bytes32",
          "name": "role",
          "type": "bytes32"
        },
        {
          "internalType": "address",
          "name": "account",
          "type": "address"
        }
      ],
      "name": "grantRole",
      "outputs": [],
      "stateMutability": "nonpayable",
      "type": "function"
    },
    {
      "inputs": [
        {
          "internalType": "bytes32",
          "name": "role",
          "type": "bytes32"
        },
        {
          "internalType": "address",
          "name": "account",
          "type": "address"
        }
      ],
      "name": "hasRole",
      "outputs": [
        {
          "internalType": "bool",
          "name": "",
          "type": "bool"
        }
      ],
      "stateMutability": "view",
      "type": "function"
    },
    {
      "inputs": [
        {
          "internalType": "address",
          "name": "account",
          "type": "address"
        },
        {
          "internalType": "address",
          "name": "operator",
          "type": "address"
        }
      ],
      "name": "isApprovedForAll",
      "outputs": [
        {
          "internalType": "bool",
          "name": "",
          "type": "bool"
        }
      ],
      "stateMutability": "view",
      "type": "function"
    },
    {
      "inputs": [
        {
          "internalType": "address",
          "name": "account",
          "type": "address"
        },
        {
          "internalType": "uint256",
          "name": "projectId",
          "type": "uint256"
        },
        {
          "internalType": "uint256",
          "name": "amount",
          "type": "uint256"
        },
        {
          "internalType": "bytes",
          "name": "data",
          "type": "bytes"
        }
      ],
      "name": "mint",
      "outputs": [],
      "stateMutability": "nonpayable",
      "type": "function"
    },
    {
      "inputs": [],
      "name": "name",
      "outputs": [
        {
          "internalType": "string",
          "name": "",
          "type": "string"
        }
      ],
      "stateMutability": "view",
      "type": "function"
    },
    {
      "inputs": [
        {
          "internalType": "bytes32",
          "name": "role",
          "type": "bytes32"
        },
        {
          "internalType": "address",
          "name": "callerConfirmation",
          "type": "address"
        }
      ],
      "name": "renounceRole",
      "outputs": [],
      "stateMutability": "nonpayable",
      "type": "function"
    },
    {
      "inputs": [
        {
          "internalType": "bytes32",
          "name": "role",
          "type": "bytes32"
        },
        {
          "internalType": "address",
          "name": "account",
          "type": "address"
        }
      ],
      "name": "revokeRole",
      "outputs": [],
      "stateMutability": "nonpayable",
      "type": "function"
    },
    {
      "inputs": [
        {
          "internalType": "address",
          "name": "from",
          "type": "address"
        },
        {
          "internalType": "address",
          "name": "to",
          "type": "address"
        },
        {
          "internalType": "uint256[]",
          "name": "ids",
          "type": "uint256[]"
        },
        {
          "internalType": "uint256[]",
          "name": "values",
          "type": "uint256[]"
        },
        {
          "internalType": "bytes",
          "name": "data",
          "type": "bytes"
        }
      ],
      "name": "safeBatchTransferFrom",
      "outputs": [],
      "stateMutability": "nonpayable",
      "type": "function"
    },
    {
      "inputs": [
        {
          "internalType": "address",
          "name": "from",
          "type": "address"
        },
        {
          "internalType": "address",
          "name": "to",
          "type": "address"
        },
        {
          "internalType": "uint256",
          "name": "id",
          "type": "uint256"
        },
        {
          "internalType": "uint256",
          "name": "value",
          "type": "uint256"
        },
        {
          "internalType": "bytes",
          "name": "data",
          "type": "bytes"
        }
      ],
      "name": "safeTransferFrom",
      "outputs": [],
      "stateMutability": "nonpayable",
      "type": "function"
    },
    {
      "inputs": [
        {
          "internalType": "address",
          "name": "operator",
          "type": "address"
        },
        {
          "internalType": "bool",
          "name": "approved",
          "type": "bool"
        }
      ],
      "name": "setApprovalForAll",
      "outputs": [],
      "stateMutability": "nonpayable",
      "type": "function"
    },
    {
      "inputs": [
        {
          "internalType": "bytes4",
          "name": "interfaceId",
          "type": "bytes4"
        }
      ],
      "name": "supportsInterface",
      "outputs": [
        {
          "internalType": "bool",
          "name": "",
          "type": "bool"
        }
      ],
      "stateMutability": "view",
      "type": "function"
    },
    {
      "inputs": [],
      "name": "symbol",
      "outputs": [
        {
          "internalType": "string",
          "name": "",
          "type": "string"
        }
      ],
      "stateMutability": "view",
      "type": "function"
    },
    {
      "inputs": [
        {
          "internalType": "uint256",
          "name": "",
          "type": "uint256"
        }
      ],
      "name": "uri",
      "outputs": [
        {
          "internalType": "string",
          "name": "",
          "type": "string"
        }
      ],
      "stateMutability": "view",
      "type": "function"
    }
  ],
  "bytecode": "0x60806040526040518060400160405280601381526020017f436172626f6e2043726564697420546f6b656e00000000000000000000000000815250600490816200004a91906200052e565b506040518060400160405280600381526020017f4343540000000000000000000000000000000000000000000000000000000000815250600590816200009191906200052e565b503480156200009f57600080fd5b50604051620032c7380380620032c78339818101604052810190620000c5919062000779565b80620000d7816200012860201b60201c565b50620000ed6000801b336200013d60201b60201c565b50620001207f9f2df0fed2c77648de5860a4cc508cd0818c85b8b8a1ab4ceeef8d981c8956a6336200013d60201b60201c565b5050620007ca565b80600290816200013991906200052e565b5050565b60006200015183836200024160201b60201c565b620002365760016003600085815260200190815260200160002060000160008473ffffffffffffffffffffffffffffffffffffffff1673ffffffffffffffffffffffffffffffffffffffff16815260200190815260200160002060006101000a81548160ff021916908315150217905550620001d2620002ac60201b60201c565b73ffffffffffffffffffffffffffffffffffffffff168273ffffffffffffffffffffffffffffffffffffffff16847f2f8788117e7eff1d82e926ec794901d17c78024a50270940304540a733656f0d60405160405180910390a4600190506200023b565b600090505b92915050565b60006003600084815260200190815260200160002060000160008373ffffffffffffffffffffffffffffffffffffffff1673ffffffffffffffffffffffffffffffffffffffff16815260200190815260200160002060009054906101000a900460ff16905092915050565b600033905090565b600081519050919050565b7f4e487b7100000000000000000000000000000000000000000000000000000000600052604160045260246000fd5b7f4e487b7100000000000000000000000000000000000000000000000000000000600052602260045260246000fd5b600060028204905060018216806200033657607f821691505b6020821081036200034c576200034b620002ee565b5b50919050565b60008190508160005260206000209050919050565b60006020601f8301049050919050565b600082821b905092915050565b600060088302620003b67fffffffffffffffffffffffffffffffffffffffffffffffffffffffffffffffff8262000377565b620003c2868362000377565b95508019841693508086168417925050509392505050565b6000819050919050565b6000819050919050565b60006200040f620004096200040384620003da565b620003e4565b620003da565b9050919050565b6000819050919050565b6200042b83620003ee565b620004436200043a8262000416565b84845462000384565b825550505050565b600090565b6200045a6200044b565b6200046781848462000420565b505050565b5b818110156200048f576200048360008262000450565b6001810190506200046d565b5050565b601f821115620004de57620004a88162000352565b620004b38462000367565b81016020851015620004c3578190505b620004db620004d28562000367565b8301826200046c565b50505b505050565b600082821c905092915050565b60006200050360001984600802620004e3565b1980831691505092915050565b60006200051e8383620004f0565b9150826002028217905092915050565b6200053982620002b4565b67ffffffffffffffff811115620005555762000554620002bf565b5b6200056182546200031d565b6200056e82828562000493565b600060209050601f831160018114620005a6576000841562000591578287015190505b6200059d858262000510565b8655506200060d565b601f198416620005b68662000352565b60005b82811015620005e057848901518255600182019150602085019450602081019050620005b9565b86831015620006005784890151620005fc601f891682620004f0565b8355505b6001600288020188555050505b505050505050565b6000604051905090565b600080fd5b600080fd5b600080fd5b600080fd5b6000601f19601f8301169050919050565b6200064f8262000633565b810181811067ffffffffffffffff82111715620006715762000670620002bf565b5b80604052505050565b60006200068662000615565b905062000694828262000644565b919050565b600067ffffffffffffffff821115620006b757620006b6620002bf565b5b620006c28262000633565b9050602081019050919050565b60005b83811015620006ef578082015181840152602081019050620006d2565b60008484015250505050565b6000620007126200070c8462000699565b6200067a565b9050828152602081018484840111156200073157620007306200062e565b5b6200073e848285620006cf565b509392505050565b600082601f8301126200075e576200075d62000629565b5b815162000770848260208601620006fb565b91505092915050565b6000602082840312156200079257620007916200061f565b5b600082015167ffffffffffffffff811115620007b357620007b262000624565b5b620007c18482850162000746565b91505092915050565b612aed80620007da6000396000f3fe608060405234801561001057600080fd5b50600436106101205760003560e01c8063731133e9116100ad578063d539139311610071578063d53913931461032b578063d547741f14610349578063e985e9c514610365578063f242432a14610395578063f5298aca146103b157610120565b8063731133e91461028757806391d14854146102a357806395d89b41146102d3578063a217fddf146102f1578063a22cb4651461030f57610120565b8063248a9ca3116100f4578063248a9ca3146101d35780632eb2c2d6146102035780632f2ff15d1461021f57806336568abe1461023b5780634e1273f41461025757610120565b8062fdd58e1461012557806301ffc9a71461015557806306fdde03146101855780630e89341c146101a3575b600080fd5b61013f600480360381019061013a9190611cc6565b6103cd565b60405161014c9190611d15565b60405180910390f35b61016f600480360381019061016a9190611d88565b610427565b60405161017c9190611dd0565b60405180910390f35b61018d610439565b60405161019a9190611e7b565b60405180910390f35b6101bd60048036038101906101b89190611e9d565b6104c7565b6040516101ca9190611e7b565b60405180910390f35b6101ed60048036038101906101e89190611f00565b61055b565b6040516101fa9190611f3c565b60405180910390f35b61021d60048036038101906102189190612154565b61057b565b005b61023960048036038101906102349190612223565b610623565b005b61025560048036038101906102509190612223565b610645565b005b610271600480360381019061026c9190612326565b6106c0565b60405161027e919061245c565b60405180910390f35b6102a1600480360381019061029c919061247e565b6107cf565b005b6102bd60048036038101906102b89190612223565b61080c565b6040516102ca9190611dd0565b60405180910390f35b6102db610877565b6040516102e89190611e7b565b60405180910390f35b6102f9610905565b6040516103069190611f3c565b60405180910390f35b6103296004803603810190610324919061252d565b61090c565b005b610333610922565b6040516103409190611f3c565b60405180910390f35b610363600480360381019061035e9190612223565b610946565b005b61037f600480360381019061037a919061256d565b610968565b60405161038c9190611dd0565b60405180910390f35b6103af60048036038101906103aa91906125ad565b6109fc565b005b6103cb60048036038101906103c69190612644565b610aa4565b005b600080600083815260200190815260200160002060008473ffffffffffffffffffffffffffffffffffffffff1673ffffffffffffffffffffffffffffffffffffffff16815260200190815260200160002054905092915050565b600061043282610b33565b9050919050565b60048054610446906126c6565b80601f0160208091040260200160405190810160405280929190818152602001828054610472906126c6565b80156104bf5780601f10610494576101008083540402835291602001916104bf565b820191906000526020600020905b8154815290600101906020018083116104a257829003601f168201915b505050505081565b6060600280546104d6906126c6565b80601f0160208091040260200160405190810160405280929190818152602001828054610502906126c6565b801561054f5780601f106105245761010080835404028352916020019161054f565b820191906000526020600020905b81548152906001019060200180831161053257829003601f168201915b50505050509050919050565b600060036000838152602001908152602001600020600101549050919050565b6000610585610bad565b90508073ffffffffffffffffffffffffffffffffffffffff168673ffffffffffffffffffffffffffffffffffffffff16141580156105ca57506105c88682610968565b155b1561060e5780866040517fe237d922000000000000000000000000000000000000000000000000000000008152600401610605929190612706565b60405180910390fd5b61061b8686868686610bb5565b505050505050565b61062c8261055b565b61063581610cad565b61063f8383610cc1565b50505050565b61064d610bad565b73ffffffffffffffffffffffffffffffffffffffff168173ffffffffffffffffffffffffffffffffffffffff16146106b1576040517f6697b23200000000000000000000000000000000000000000000000000000000815260040160405180910390fd5b6106bb8282610db3565b505050565b6060815183511461070c57815183516040517f5b05999100000000000000000000000000000000000000000000000000000000815260040161070392919061272f565b60405180910390fd5b6000835167ffffffffffffffff81111561072957610728611f5c565b5b6040519080825280602002602001820160405280156107575781602001602082028036833780820191505090505b50905060005b84518110156107c45761079461077c8287610ea690919063ffffffff16565b61078f8387610eba90919063ffffffff16565b6103cd565b8282815181106107a7576107a6612758565b5b602002602001018181525050806107bd906127b6565b905061075d565b508091505092915050565b7f9f2df0fed2c77648de5860a4cc508cd0818c85b8b8a1ab4ceeef8d981c8956a66107f981610cad565b61080585858585610ece565b5050505050565b60006003600084815260200190815260200160002060000160008373ffffffffffffffffffffffffffffffffffffffff1673ffffffffffffffffffffffffffffffffffffffff16815260200190815260200160002060009054906101000a900460ff16905092915050565b60058054610884906126c6565b80601f01602080910402602001604051908101604052809291908181526020018280546108b0906126c6565b80156108fd5780601f106108d2576101008083540402835291602001916108fd565b820191906000526020600020905b8154815290600101906020018083116108e057829003601f168201915b505050505081565b6000801b81565b61091e610917610bad565b8383610f67565b5050565b7f9f2df0fed2c77648de5860a4cc508cd0818c85b8b8a1ab4ceeef8d981c8956a681565b61094f8261055b565b61095881610cad565b6109628383610db3565b50505050565b6000600160008473ffffffffffffffffffffffffffffffffffffffff1673ffffffffffffffffffffffffffffffffffffffff16815260200190815260200160002060008373ffffffffffffffffffffffffffffffffffffffff1673ffffffffffffffffffffffffffffffffffffffff16815260200190815260200160002060009054906101000a900460ff16905092915050565b6000610a06610bad565b90508073ffffffffffffffffffffffffffffffffffffffff168673ffffffffffffffffffffffffffffffffffffffff1614158015610a4b5750610a498682610968565b155b15610a8f5780866040517fe237d922000000000000000000000000000000000000000000000000000000008152600401610a86929190612706565b60405180910390fd5b610a9c86868686866110d7565b505050505050565b3373ffffffffffffffffffffffffffffffffffffffff168373ffffffffffffffffffffffffffffffffffffffff161480610ae45750610ae38333610968565b5b610b23576040517f08c379a0000000000000000000000000000000000000000000000000000000008152600401610b1a9061284a565b60405180910390fd5b610b2e8383836111e2565b505050565b60007f7965db0b000000000000000000000000000000000000000000000000000000007bffffffffffffffffffffffffffffffffffffffffffffffffffffffff1916827bffffffffffffffffffffffffffffffffffffffffffffffffffffffff19161480610ba65750610ba582611289565b5b9050919050565b600033905090565b600073ffffffffffffffffffffffffffffffffffffffff168473ffffffffffffffffffffffffffffffffffffffff1603610c275760006040517f57f447ce000000000000000000000000000000000000000000000000000000008152600401610c1e919061286a565b60405180910390fd5b600073ffffffffffffffffffffffffffffffffffffffff168573ffffffffffffffffffffffffffffffffffffffff1603610c995760006040517f01a83514000000000000000000000000000000000000000000000000000000008152600401610c90919061286a565b60405180910390fd5b610ca6858585858561136b565b5050505050565b610cbe81610cb9610bad565b61141d565b50565b6000610ccd838361080c565b610da85760016003600085815260200190815260200160002060000160008473ffffffffffffffffffffffffffffffffffffffff1673ffffffffffffffffffffffffffffffffffffffff16815260200190815260200160002060006101000a81548160ff021916908315150217905550610d45610bad565b73ffffffffffffffffffffffffffffffffffffffff168273ffffffffffffffffffffffffffffffffffffffff16847f2f8788117e7eff1d82e926ec794901d17c78024a50270940304540a733656f0d60405160405180910390a460019050610dad565b600090505b92915050565b6000610dbf838361080c565b15610e9b5760006003600085815260200190815260200160002060000160008473ffffffffffffffffffffffffffffffffffffffff1673ffffffffffffffffffffffffffffffffffffffff16815260200190815260200160002060006101000a81548160ff021916908315150217905550610e38610bad565b73ffffffffffffffffffffffffffffffffffffffff168273ffffffffffffffffffffffffffffffffffffffff16847ff6391f5c32d9c69d2a47ea670b442974b53935d1edc7fd64eb21e047a839171b60405160405180910390a460019050610ea0565b600090505b92915050565b600060208202602084010151905092915050565b600060208202602084010151905092915050565b600073ffffffffffffffffffffffffffffffffffffffff168473ffffffffffffffffffffffffffffffffffffffff1603610f405760006040517f57f447ce000000000000000000000000000000000000000000000000000000008152600401610f37919061286a565b60405180910390fd5b600080610f4d858561146e565b91509150610f5f60008784848761136b565b505050505050565b600073ffffffffffffffffffffffffffffffffffffffff168273ffffffffffffffffffffffffffffffffffffffff1603610fd95760006040517fced3e100000000000000000000000000000000000000000000000000000000008152600401610fd0919061286a565b60405180910390fd5b80600160008573ffffffffffffffffffffffffffffffffffffffff1673ffffffffffffffffffffffffffffffffffffffff16815260200190815260200160002060008473ffffffffffffffffffffffffffffffffffffffff1673ffffffffffffffffffffffffffffffffffffffff16815260200190815260200160002060006101000a81548160ff0219169083151502179055508173ffffffffffffffffffffffffffffffffffffffff168373ffffffffffffffffffffffffffffffffffffffff167f17307eab39ab6107e8899845ad3d59bd9653f200f220920489ca2b5937696c31836040516110ca9190611dd0565b60405180910390a3505050565b600073ffffffffffffffffffffffffffffffffffffffff168473ffffffffffffffffffffffffffffffffffffffff16036111495760006040517f57f447ce000000000000000000000000000000000000000000000000000000008152600401611140919061286a565b60405180910390fd5b600073ffffffffffffffffffffffffffffffffffffffff168573ffffffffffffffffffffffffffffffffffffffff16036111bb5760006040517f01a835140000000000000000000000000000000000000000000000000000000081526004016111b2919061286a565b60405180910390fd5b6000806111c8858561146e565b915091506111d9878784848761136b565b50505050505050565b600073ffffffffffffffffffffffffffffffffffffffff168373ffffffffffffffffffffffffffffffffffffffff16036112545760006040517f01a8351400000000000000000000000000000000000000000000000000000000815260040161124b919061286a565b60405180910390fd5b600080611261848461146e565b9150915061128285600084846040518060200160405280600081525061136b565b5050505050565b60007fd9b67a26000000000000000000000000000000000000000000000000000000007bffffffffffffffffffffffffffffffffffffffffffffffffffffffff1916827bffffffffffffffffffffffffffffffffffffffffffffffffffffffff1916148061135457507f0e89341c000000000000000000000000000000000000000000000000000000007bffffffffffffffffffffffffffffffffffffffffffffffffffffffff1916827bffffffffffffffffffffffffffffffffffffffffffffffffffffffff1916145b8061136457506113638261149e565b5b9050919050565b61137785858585611508565b600073ffffffffffffffffffffffffffffffffffffffff168473ffffffffffffffffffffffffffffffffffffffff16146114165760006113b5610bad565b905060018451036114055760006113d6600086610eba90919063ffffffff16565b905060006113ee600086610eba90919063ffffffff16565b90506113fe8389898585896118b6565b5050611414565b611413818787878787611a6a565b5b505b5050505050565b611427828261080c565b61146a5780826040517fe2517d3f000000000000000000000000000000000000000000000000000000008152600401611461929190612885565b60405180910390fd5b5050565b60608060405191506001825283602083015260408201905060018152826020820152604081016040529250929050565b60007f01ffc9a7000000000000000000000000000000000000000000000000000000007bffffffffffffffffffffffffffffffffffffffffffffffffffffffff1916827bffffffffffffffffffffffffffffffffffffffffffffffffffffffff1916149050919050565b805182511461155257815181516040517f5b05999100000000000000000000000000000000000000000000000000000000815260040161154992919061272f565b60405180910390fd5b600061155c610bad565b905060005b835181101561177157600061157f8286610eba90919063ffffffff16565b905060006115968386610eba90919063ffffffff16565b9050600073ffffffffffffffffffffffffffffffffffffffff168873ffffffffffffffffffffffffffffffffffffffff16146116c357600080600084815260200190815260200160002060008a73ffffffffffffffffffffffffffffffffffffffff1673ffffffffffffffffffffffffffffffffffffffff1681526020019081526020016000205490508181101561166b57888183856040517f03dee4c500000000000000000000000000000000000000000000000000000000815260040161166294939291906128ae565b60405180910390fd5b81810360008085815260200190815260200160002060008b73ffffffffffffffffffffffffffffffffffffffff1673ffffffffffffffffffffffffffffffffffffffff16815260200190815260200160002081905550505b600073ffffffffffffffffffffffffffffffffffffffff168773ffffffffffffffffffffffffffffffffffffffff161461175e578060008084815260200190815260200160002060008973ffffffffffffffffffffffffffffffffffffffff1673ffffffffffffffffffffffffffffffffffffffff168152602001908152602001600020600082825461175691906128f3565b925050819055505b50508061176a906127b6565b9050611561565b506001835103611830576000611791600085610eba90919063ffffffff16565b905060006117a9600085610eba90919063ffffffff16565b90508573ffffffffffffffffffffffffffffffffffffffff168773ffffffffffffffffffffffffffffffffffffffff168473ffffffffffffffffffffffffffffffffffffffff167fc3d58168c5ae7397731d063d5bbf3d657854427343f4c083240f7aacaa2d0f62858560405161182192919061272f565b60405180910390a450506118af565b8373ffffffffffffffffffffffffffffffffffffffff168573ffffffffffffffffffffffffffffffffffffffff168273ffffffffffffffffffffffffffffffffffffffff167f4a39dc06d4c0dbc64b70af90fd698a233a518aa5d07e595d983b8c0526c8f7fb86866040516118a6929190612927565b60405180910390a45b5050505050565b60008473ffffffffffffffffffffffffffffffffffffffff163b1115611a62578373ffffffffffffffffffffffffffffffffffffffff1663f23a6e6187878686866040518663ffffffff1660e01b81526004016119179594939291906129b3565b6020604051808303816000875af192505050801561195357506040513d601f19601f820116820180604052508101906119509190612a22565b60015b6119d7573d8060008114611983576040519150601f19603f3d011682016040523d82523d6000602084013e611988565b606091505b5060008151036119cf57846040517f57f447ce0000000000000000000000000000000000000000000000000000000081526004016119c6919061286a565b60405180910390fd5b805160208201fd5b63f23a6e6160e01b7bffffffffffffffffffffffffffffffffffffffffffffffffffffffff1916817bffffffffffffffffffffffffffffffffffffffffffffffffffffffff191614611a6057846040517f57f447ce000000000000000000000000000000000000000000000000000000008152600401611a57919061286a565b60405180910390fd5b505b505050505050565b60008473ffffffffffffffffffffffffffffffffffffffff163b1115611c16578373ffffffffffffffffffffffffffffffffffffffff1663bc197c8187878686866040518663ffffffff1660e01b8152600401611acb959493929190612a4f565b6020604051808303816000875af1925050508015611b0757506040513d601f19601f82011682018060405250810190611b049190612a22565b60015b611b8b573d8060008114611b37576040519150601f19603f3d011682016040523d82523d6000602084013e611b3c565b606091505b506000815103611b8357846040517f57f447ce000000000000000000000000000000000000000000000000000000008152600401611b7a919061286a565b60405180910390fd5b805160208201fd5b63bc197c8160e01b7bffffffffffffffffffffffffffffffffffffffffffffffffffffffff1916817bffffffffffffffffffffffffffffffffffffffffffffffffffffffff191614611c1457846040517f57f447ce000000000000000000000000000000000000000000000000000000008152600401611c0b919061286a565b60405180910390fd5b505b505050505050565b6000604051905090565b600080fd5b600080fd5b600073ffffffffffffffffffffffffffffffffffffffff82169050919050565b6000611c5d82611c32565b9050919050565b611c6d81611c52565b8114611c7857600080fd5b50565b600081359050611c8a81611c64565b92915050565b6000819050919050565b611ca381611c90565b8114611cae57600080fd5b50565b600081359050611cc081611c9a565b92915050565b60008060408385031215611cdd57611cdc611c28565b5b6000611ceb85828601611c7b565b9250506020611cfc85828601611cb1565b9150509250929050565b611d0f81611c90565b82525050565b6000602082019050611d2a6000830184611d06565b92915050565b60007fffffffff0000000000000000000000000000000000000000000000000000000082169050919050565b611d6581611d30565b8114611d7057600080fd5b50565b600081359050611d8281611d5c565b92915050565b600060208284031215611d9e57611d9d611c28565b5b6000611dac84828501611d73565b91505092915050565b60008115159050919050565b611dca81611db5565b82525050565b6000602082019050611de56000830184611dc1565b92915050565b600081519050919050565b600082825260208201905092915050565b60005b83811015611e25578082015181840152602081019050611e0a565b60008484015250505050565b6000601f19601f8301169050919050565b6000611e4d82611deb565b611e578185611df6565b9350611e67818560208601611e07565b611e7081611e31565b840191505092915050565b60006020820190508181036000830152611e958184611e42565b905092915050565b600060208284031215611eb357611eb2611c28565b5b6000611ec184828501611cb1565b91505092915050565b6000819050919050565b611edd81611eca565b8114611ee857600080fd5b50565b600081359050611efa81611ed4565b92915050565b600060208284031215611f1657611f15611c28565b5b6000611f2484828501611eeb565b91505092915050565b611f3681611eca565b82525050565b6000602082019050611f516000830184611f2d565b92915050565b600080fd5b7f4e487b7100000000000000000000000000000000000000000000000000000000600052604160045260246000fd5b611f9482611e31565b810181811067ffffffffffffffff82111715611fb357611fb2611f5c565b5b80604052505050565b6000611fc6611c1e565b9050611fd28282611f8b565b919050565b600067ffffffffffffffff821115611ff257611ff1611f5c565b5b602082029050602081019050919050565b600080fd5b600061201b61201684611fd7565b611fbc565b9050808382526020820190506020840283018581111561203e5761203d612003565b5b835b8181101561206757806120538882611cb1565b845260208401935050602081019050612040565b5050509392505050565b600082601f83011261208657612085611f57565b5b8135612096848260208601612008565b91505092915050565b600080fd5b600067ffffffffffffffff8211156120bf576120be611f5c565b5b6120c882611e31565b9050602081019050919050565b82818337600083830152505050565b60006120f76120f2846120a4565b611fbc565b9050828152602081018484840111156121135761211261209f565b5b61211e8482856120d5565b509392505050565b600082601f83011261213b5761213a611f57565b5b813561214b8482602086016120e4565b91505092915050565b600080600080600060a086880312156121705761216f611c28565b5b600061217e88828901611c7b565b955050602061218f88828901611c7b565b945050604086013567ffffffffffffffff8111156121b0576121af611c2d565b5b6121bc88828901612071565b935050606086013567ffffffffffffffff8111156121dd576121dc611c2d565b5b6121e988828901612071565b925050608086013567ffffffffffffffff81111561220a57612209611c2d565b5b61221688828901612126565b9150509295509295909350565b6000806040838503121561223a57612239611c28565b5b600061224885828601611eeb565b925050602061225985828601611c7b565b9150509250929050565b600067ffffffffffffffff82111561227e5761227d611f5c565b5b602082029050602081019050919050565b60006122a261229d84612263565b611fbc565b905080838252602082019050602084028301858111156122c5576122c4612003565b5b835b818110156122ee57806122da8882611c7b565b8452602084019350506020810190506122c7565b5050509392505050565b600082601f83011261230d5761230c611f57565b5b813561231d84826020860161228f565b91505092915050565b6000806040838503121561233d5761233c611c28565b5b600083013567ffffffffffffffff81111561235b5761235a611c2d565b5b612367858286016122f8565b925050602083013567ffffffffffffffff81111561238857612387611c2d565b5b61239485828601612071565b9150509250929050565b600081519050919050565b600082825260208201905092915050565b6000819050602082019050919050565b6123d381611c90565b82525050565b60006123e583836123ca565b60208301905092915050565b6000602082019050919050565b60006124098261239e565b61241381856123a9565b935061241e836123ba565b8060005b8381101561244f57815161243688826123d9565b9750612441836123f1565b925050600181019050612422565b5085935050505092915050565b6000602082019050818103600083015261247681846123fe565b905092915050565b6000806000806080858703121561249857612497611c28565b5b60006124a687828801611c7b565b94505060206124b787828801611cb1565b93505060406124c887828801611cb1565b925050606085013567ffffffffffffffff8111156124e9576124e8611c2d565b5b6124f587828801612126565b91505092959194509250565b61250a81611db5565b811461251557600080fd5b50565b60008135905061252781612501565b92915050565b6000806040838503121561254457612543611c28565b5b600061255285828601611c7b565b925050602061256385828601612518565b9150509250929050565b6000806040838503121561258457612583611c28565b5b600061259285828601611c7b565b92505060206125a385828601611c7b565b9150509250929050565b600080600080600060a086880312156125c9576125c8611c28565b5b60006125d788828901611c7b565b95505060206125e888828901611c7b565b94505060406125f988828901611cb1565b935050606061260a88828901611cb1565b925050608086013567ffffffffffffffff81111561262b5761262a611c2d565b5b61263788828901612126565b9150509295509295909350565b60008060006060848603121561265d5761265c611c28565b5b600061266b86828701611c7b565b935050602061267c86828701611cb1565b925050604061268d86828701611cb1565b9150509250925092565b7f4e487b7100000000000000000000000000000000000000000000000000000000600052602260045260246000fd5b600060028204905060018216806126de57607f821691505b6020821081036126f1576126f0612697565b5b50919050565b61270081611c52565b82525050565b600060408201905061271b60008301856126f7565b61272860208301846126f7565b9392505050565b60006040820190506127446000830185611d06565b6127516020830184611d06565b9392505050565b7f4e487b7100000000000000000000000000000000000000000000000000000000600052603260045260246000fd5b7f4e487b7100000000000000000000000000000000000000000000000000000000600052601160045260246000fd5b60006127c182611c90565b91507fffffffffffffffffffffffffffffffffffffffffffffffffffffffffffffffff82036127f3576127f2612787565b5b600182019050919050565b7f4e6f74206f776e6572206e6f7220617070726f76656400000000000000000000600082015250565b6000612834601683611df6565b915061283f826127fe565b602082019050919050565b6000602082019050818103600083015261286381612827565b9050919050565b600060208201905061287f60008301846126f7565b92915050565b600060408201905061289a60008301856126f7565b6128a76020830184611f2d565b9392505050565b60006080820190506128c360008301876126f7565b6128d06020830186611d06565b6128dd6040830185611d06565b6128ea6060830184611d06565b95945050505050565b60006128fe82611c90565b915061290983611c90565b925082820190508082111561292157612920612787565b5b92915050565b6000604082019050818103600083015261294181856123fe565b9050818103602083015261295581846123fe565b90509392505050565b600081519050919050565b600082825260208201905092915050565b60006129858261295e565b61298f8185612969565b935061299f818560208601611e07565b6129a881611e31565b840191505092915050565b600060a0820190506129c860008301886126f7565b6129d560208301876126f7565b6129e26040830186611d06565b6129ef6060830185611d06565b8181036080830152612a01818461297a565b90509695505050505050565b600081519050612a1c81611d5c565b92915050565b600060208284031215612a3857612a37611c28565b5b6000612a4684828501612a0d565b91505092915050565b600060a082019050612a6460008301886126f7565b612a7160208301876126f7565b8181036040830152612a8381866123fe565b90508181036060830152612a9781856123fe565b90508181036080830152612aab818461297a565b9050969550505050505056fea26469706673582212203ac8db84ca6fee96c4cba7ee3a9d46a184bb0a3393bfae0e0aa0dadc1a04c53464736f6c63430008140033",
  "linkReferences": {},
  "deployedLinkReferences": {}
}