{
  "_format": "hh-sol-artifact-1",
  "contractName": "CarbonCreditToken",
  "sourceName": "contracts/CarbonCreditToken.sol",
  "abi": [
    {
      "inputs": [
        {
          "internalType": "string",
          "name": "_uri",
          "type": "string"
        }
      ],
      "stateMutability": "nonpayable",
      "type": "constructor"
    },
    {
      "inputs": [],
      "name": "AccessControlBadConfirmation",
      "type": "error"
    },
    {
      "inputs": [
        {
          "internalType": "address",
          "name": "account",
          "type": "address"
        },
        {
          "internalType": "bytes32",
          "name": "neededRole",
          "type": "bytes32"
        }
      ],
      "name": "AccessControlUnauthorizedAccount",
      "type": "error"
    },
    {
      "inputs": [
        {
          "internalType": "address",
          "name": "sender",
          "type": "address"
        },
        {
          "internalType": "uint256",
          "name": "balance",
          "type": "uint256"
        },
        {
          "internalType": "uint256",
          "name": "needed",
          "type": "uint256"
        },
        {
          "internalType": "uint256",
          "name": "tokenId",
          "type": "uint256"
        }
      ],
      "name": "ERC1155InsufficientBalance",
      "type": "error"
    },
    {
      "inputs": [
        {
          "internalType": "address",
          "name": "approver",
          "type": "address"
        }
      ],
      "name": "ERC1155InvalidApprover",
      "type": "error"
    },
    {
      "inputs": [
        {
          "internalType": "uint256",
          "name": "idsLength",
          "type": "uint256"
        },
        {
          "internalType": "uint256",
          "name": "valuesLength",
          "type": "uint256"
        }
      ],
      "name": "ERC1155InvalidArrayLength",
      "type": "error"
    },
    {
      "inputs": [
        {
          "internalType": "address",
          "name": "operator",
          "type": "address"
        }
      ],
      "name": "ERC1155InvalidOperator",
      "type": "error"
    },
    {
      "inputs": [
        {
          "internalType": "address",
          "name": "receiver",
          "type": "address"
        }
      ],
      "name": "ERC1155InvalidReceiver",
      "type": "error"
    },
    {
      "inputs": [
        {
          "internalType": "address",
          "name": "sender",
          "type": "address"
        }
      ],
      "name": "ERC1155InvalidSender",
      "type": "error"
    },
    {
      "inputs": [
        {
          "internalType": "address",
          "name": "operator",
          "type": "address"
        },
        {
          "internalType": "address",
          "name": "owner",
          "type": "address"
        }
      ],
      "name": "ERC1155MissingApprovalForAll",
      "type": "error"
    },
    {
      "anonymous": false,
      "inputs": [
        {
          "indexed": true,
          "internalType": "address",
          "name": "account",
          "type": "address"
        },
        {
          "indexed": true,
          "internalType": "address",
          "name": "operator",
          "type": "address"
        },
        {
          "indexed": false,
          "internalType": "bool",
          "name": "approved",
          "type": "bool"
        }
      ],
      "name": "ApprovalForAll",
      "type": "event"
    },
    {
      "anonymous": false,
      "inputs": [
        {
          "indexed": true,
          "internalType": "bytes32",
          "name": "role",
          "type": "bytes32"
        },
        {
          "indexed": true,
          "internalType": "bytes32",
          "name": "previousAdminRole",
          "type": "bytes32"
        },
        {
          "indexed": true,
          "internalType": "bytes32",
          "name": "newAdminRole",
          "type": "bytes32"
        }
      ],
      "name": "RoleAdminChanged",
      "type": "event"
    },
    {
      "anonymous": false,
      "inputs": [
        {
          "indexed": true,
          "internalType": "bytes32",
          "name": "role",
          "type": "bytes32"
        },
        {
          "indexed": true,
          "internalType": "address",
          "name": "account",
          "type": "address"
        },
        {
          "indexed": true,
          "internalType": "address",
          "name": "sender",
          "type": "address"
        }
      ],
      "name": "RoleGranted",
      "type": "event"
    },
    {
      "anonymous": false,
      "inputs": [
        {
          "indexed": true,
          "internalType": "bytes32",
          "name": "role",
          "type": "bytes32"
        },
        {
          "indexed": true,
          "internalType": "address",
          "name": "account",
          "type": "address"
        },
        {
          "indexed": true,
          "internalType": "address",
          "name": "sender",
          "type": "address"
        }
      ],
      "name": "RoleRevoked",
      "type": "event"
    },
    {
      "anonymous": false,
      "inputs": [
        {
          "indexed": true,
          "internalType": "address",
          "name": "operator",
          "type": "address"
        },
        {
          "indexed": true,
          "internalType": "address",
          "name": "from",
          "type": "address"
        },
        {
          "indexed": true,
          "internalType": "address",
          "name": "to",
          "type": "address"
        },
        {
          "indexed": false,
          "internalType": "uint256[]",
          "name": "ids",
          "type": "uint256[]"
        },
        {
          "indexed": false,
          "internalType": "uint256[]",
          "name": "values",
          "type": "uint256[]"
        }
      ],
      "name": "TransferBatch",
      "type": "event"
    },
    {
      "anonymous": false,
      "inputs": [
        {
          "indexed": true,
          "internalType": "address",
          "name": "operator",
          "type": "address"
        },
        {
          "indexed": true,
          "internalType": "address",
          "name": "from",
          "type": "address"
        },
        {
          "indexed": true,
          "internalType": "address",
          "name": "to",
          "type": "address"
        },
        {
          "indexed": false,
          "internalType": "uint256",
          "name": "id",
          "type": "uint256"
        },
        {
          "indexed": false,
          "internalType": "uint256",
          "name": "value",
          "type": "uint256"
        }
      ],
      "name": "TransferSingle",
      "type": "event"
    },
    {
      "anonymous": false,
      "inputs": [
        {
          "indexed": false,
          "internalType": "string",
          "name": "value",
          "type": "string"
        },
        {
          "indexed": true,
          "internalType": "uint256",
          "name": "id",
          "type": "uint256"
        }
      ],
      "name": "URI",
      "type": "event"
    },
    {
      "inputs": [],
      "name": "DEFAULT_ADMIN_ROLE",
      "outputs": [
        {
          "internalType": "bytes32",
          "name": "",
          "type": "bytes32"
        }
      ],
      "stateMutability": "view",
      "type": "function"
    },
    {
      "inputs": [],
      "name": "MINTER_ROLE",
      "outputs": [
        {
          "internalType": "bytes32",
          "name": "",
          "type": "bytes32"
        }
      ],
      "stateMutability": "view",
      "type": "function"
    },
    {
      "inputs": [
        {
          "internalType": "address",
          "name": "account",
          "type": "address"
        },
        {
          "internalType": "uint256",
          "name": "projectId",
          "type": "uint256"
        },
        {
          "internalType": "uint256",
          "name": "amount",
          "type": "uint256"
        }
      ],
      "name": "adminBurn",
      "outputs": [],
      "stateMutability": "nonpayable",
      "type": "function"
    },
    {
      "inputs": [
        {
          "internalType": "address",
          "name": "from",
          "type": "address"
        },
        {
          "internalType": "address",
          "name": "to",
          "type": "address"
        },
        {
          "internalType": "uint256",
          "name": "projectId",
          "type": "uint256"
        },
        {
          "internalType": "uint256",
          "name": "amount",
          "type": "uint256"
        },
        {
          "internalType": "bytes",
          "name": "data",
          "type": "bytes"
        }
      ],
      "name": "adminTransfer",
      "outputs": [],
      "stateMutability": "nonpayable",
      "type": "function"
    },
    {
      "inputs": [
        {
          "internalType": "address",
          "name": "account",
          "type": "address"
        },
        {
          "internalType": "uint256",
          "name": "id",
          "type": "uint256"
        }
      ],
      "name": "balanceOf",
      "outputs": [
        {
          "internalType": "uint256",
          "name": "",
          "type": "uint256"
        }
      ],
      "stateMutability": "view",
      "type": "function"
    },
    {
      "inputs": [
        {
          "internalType": "address[]",
          "name": "accounts",
          "type": "address[]"
        },
        {
          "internalType": "uint256[]",
          "name": "ids",
          "type": "uint256[]"
        }
      ],
      "name": "balanceOfBatch",
      "outputs": [
        {
          "internalType": "uint256[]",
          "name": "",
          "type": "uint256[]"
        }
      ],
      "stateMutability": "view",
      "type": "function"
    },
    {
      "inputs": [
        {
          "internalType": "address",
          "name": "account",
          "type": "address"
        },
        {
          "internalType": "uint256",
          "name": "projectId",
          "type": "uint256"
        },
        {
          "internalType": "uint256",
          "name": "amount",
          "type": "uint256"
        }
      ],
      "name": "burn",
      "outputs": [],
      "stateMutability": "nonpayable",
      "type": "function"
    },
    {
      "inputs": [
        {
          "internalType": "bytes32",
          "name": "role",
          "type": "bytes32"
        }
      ],
      "name": "getRoleAdmin",
      "outputs": [
        {
          "internalType": "bytes32",
          "name": "",
          "type": "bytes32"
        }
      ],
      "stateMutability": "view",
      "type": "function"
    },
    {
      "inputs": [
        {
          "internalType": "bytes32",
          "name": "role",
          "type": "bytes32"
        },
        {
          "internalType": "address",
          "name": "account",
          "type": "address"
        }
      ],
      "name": "grantRole",
      "outputs": [],
      "stateMutability": "nonpayable",
      "type": "function"
    },
    {
      "inputs": [
        {
          "internalType": "bytes32",
          "name": "role",
          "type": "bytes32"
        },
        {
          "internalType": "address",
          "name": "account",
          "type": "address"
        }
      ],
      "name": "hasRole",
      "outputs": [
        {
          "internalType": "bool",
          "name": "",
          "type": "bool"
        }
      ],
      "stateMutability": "view",
      "type": "function"
    },
    {
      "inputs": [
        {
          "internalType": "address",
          "name": "account",
          "type": "address"
        },
        {
          "internalType": "address",
          "name": "operator",
          "type": "address"
        }
      ],
      "name": "isApprovedForAll",
      "outputs": [
        {
          "internalType": "bool",
          "name": "",
          "type": "bool"
        }
      ],
      "stateMutability": "view",
      "type": "function"
    },
    {
      "inputs": [
        {
          "internalType": "address",
          "name": "account",
          "type": "address"
        },
        {
          "internalType": "uint256",
          "name": "projectId",
          "type": "uint256"
        },
        {
          "internalType": "uint256",
          "name": "amount",
          "type": "uint256"
        },
        {
          "internalType": "bytes",
          "name": "data",
          "type": "bytes"
        }
      ],
      "name": "mint",
      "outputs": [],
      "stateMutability": "nonpayable",
      "type": "function"
    },
    {
      "inputs": [],
      "name": "name",
      "outputs": [
        {
          "internalType": "string",
          "name": "",
          "type": "string"
        }
      ],
      "stateMutability": "view",
      "type": "function"
    },
    {
      "inputs": [
        {
          "internalType": "bytes32",
          "name": "role",
          "type": "bytes32"
        },
        {
          "internalType": "address",
          "name": "callerConfirmation",
          "type": "address"
        }
      ],
      "name": "renounceRole",
      "outputs": [],
      "stateMutability": "nonpayable",
      "type": "function"
    },
    {
      "inputs": [
        {
          "internalType": "bytes32",
          "name": "role",
          "type": "bytes32"
        },
        {
          "internalType": "address",
          "name": "account",
          "type": "address"
        }
      ],
      "name": "revokeRole",
      "outputs": [],
      "stateMutability": "nonpayable",
      "type": "function"
    },
    {
      "inputs": [
        {
          "internalType": "address",
          "name": "from",
          "type": "address"
        },
        {
          "internalType": "address",
          "name": "to",
          "type": "address"
        },
        {
          "internalType": "uint256[]",
          "name": "ids",
          "type": "uint256[]"
        },
        {
          "internalType": "uint256[]",
          "name": "values",
          "type": "uint256[]"
        },
        {
          "internalType": "bytes",
          "name": "data",
          "type": "bytes"
        }
      ],
      "name": "safeBatchTransferFrom",
      "outputs": [],
      "stateMutability": "nonpayable",
      "type": "function"
    },
    {
      "inputs": [
        {
          "internalType": "address",
          "name": "from",
          "type": "address"
        },
        {
          "internalType": "address",
          "name": "to",
          "type": "address"
        },
        {
          "internalType": "uint256",
          "name": "id",
          "type": "uint256"
        },
        {
          "internalType": "uint256",
          "name": "value",
          "type": "uint256"
        },
        {
          "internalType": "bytes",
          "name": "data",
          "type": "bytes"
        }
      ],
      "name": "safeTransferFrom",
      "outputs": [],
      "stateMutability": "nonpayable",
      "type": "function"
    },
    {
      "inputs": [
        {
          "internalType": "address",
          "name": "operator",
          "type": "address"
        },
        {
          "internalType": "bool",
          "name": "approved",
          "type": "bool"
        }
      ],
      "name": "setApprovalForAll",
      "outputs": [],
      "stateMutability": "nonpayable",
      "type": "function"
    },
    {
      "inputs": [
        {
          "internalType": "bytes4",
          "name": "interfaceId",
          "type": "bytes4"
        }
      ],
      "name": "supportsInterface",
      "outputs": [
        {
          "internalType": "bool",
          "name": "",
          "type": "bool"
        }
      ],
      "stateMutability": "view",
      "type": "function"
    },
    {
      "inputs": [],
      "name": "symbol",
      "outputs": [
        {
          "internalType": "string",
          "name": "",
          "type": "string"
        }
      ],
      "stateMutability": "view",
      "type": "function"
    },
    {
      "inputs": [
        {
          "internalType": "uint256",
          "name": "",
          "type": "uint256"
        }
      ],
      "name": "uri",
      "outputs": [
        {
          "internalType": "string",
          "name": "",
          "type": "string"
        }
      ],
      "stateMutability": "view",
      "type": "function"
    }
  ],
  "bytecode": "0x60806040526040518060400160405280601381526020017f436172626f6e2043726564697420546f6b656e00000000000000000000000000815250600490816200004a91906200052e565b506040518060400160405280600381526020017f4343540000000000000000000000000000000000000000000000000000000000815250600590816200009191906200052e565b503480156200009f57600080fd5b506040516200338f3803806200338f8339818101604052810190620000c5919062000779565b80620000d7816200012860201b60201c565b50620000ed6000801b336200013d60201b60201c565b50620001207f9f2df0fed2c77648de5860a4cc508cd0818c85b8b8a1ab4ceeef8d981c8956a6336200013d60201b60201c565b5050620007ca565b80600290816200013991906200052e565b5050565b60006200015183836200024160201b60201c565b620002365760016003600085815260200190815260200160002060000160008473ffffffffffffffffffffffffffffffffffffffff1673ffffffffffffffffffffffffffffffffffffffff16815260200190815260200160002060006101000a81548160ff021916908315150217905550620001d2620002ac60201b60201c565b73ffffffffffffffffffffffffffffffffffffffff168273ffffffffffffffffffffffffffffffffffffffff16847f2f8788117e7eff1d82e926ec794901d17c78024a50270940304540a733656f0d60405160405180910390a4600190506200023b565b600090505b92915050565b60006003600084815260200190815260200160002060000160008373ffffffffffffffffffffffffffffffffffffffff1673ffffffffffffffffffffffffffffffffffffffff16815260200190815260200160002060009054906101000a900460ff16905092915050565b600033905090565b600081519050919050565b7f4e487b7100000000000000000000000000000000000000000000000000000000600052604160045260246000fd5b7f4e487b7100000000000000000000000000000000000000000000000000000000600052602260045260246000fd5b600060028204905060018216806200033657607f821691505b6020821081036200034c576200034b620002ee565b5b50919050565b60008190508160005260206000209050919050565b60006020601f8301049050919050565b600082821b905092915050565b600060088302620003b67fffffffffffffffffffffffffffffffffffffffffffffffffffffffffffffffff8262000377565b620003c2868362000377565b95508019841693508086168417925050509392505050565b6000819050919050565b6000819050919050565b60006200040f620004096200040384620003da565b620003e4565b620003da565b9050919050565b6000819050919050565b6200042b83620003ee565b620004436200043a8262000416565b84845462000384565b825550505050565b600090565b6200045a6200044b565b6200046781848462000420565b505050565b5b818110156200048f576200048360008262000450565b6001810190506200046d565b5050565b601f821115620004de57620004a88162000352565b620004b38462000367565b81016020851015620004c3578190505b620004db620004d28562000367565b8301826200046c565b50505b505050565b600082821c905092915050565b60006200050360001984600802620004e3565b1980831691505092915050565b60006200051e8383620004f0565b9150826002028217905092915050565b6200053982620002b4565b67ffffffffffffffff811115620005555762000554620002bf565b5b6200056182546200031d565b6200056e82828562000493565b600060209050601f831160018114620005a6576000841562000591578287015190505b6200059d858262000510565b8655506200060d565b601f198416620005b68662000352565b60005b82811015620005e057848901518255600182019150602085019450602081019050620005b9565b86831015620006005784890151620005fc601f891682620004f0565b8355505b6001600288020188555050505b505050505050565b6000604051905090565b600080fd5b600080fd5b600080fd5b600080fd5b6000601f19601f8301169050919050565b6200064f8262000633565b810181811067ffffffffffffffff82111715620006715762000670620002bf565b5b80604052505050565b60006200068662000615565b905062000694828262000644565b919050565b600067ffffffffffffffff821115620006b757620006b6620002bf565b5b620006c28262000633565b9050602081019050919050565b60005b83811015620006ef578082015181840152602081019050620006d2565b60008484015250505050565b6000620007126200070c8462000699565b6200067a565b9050828152602081018484840111156200073157620007306200062e565b5b6200073e848285620006cf565b509392505050565b600082601f8301126200075e576200075d62000629565b5b815162000770848260208601620006fb565b91505092915050565b6000602082840312156200079257620007916200061f565b5b600082015167ffffffffffffffff811115620007b357620007b262000624565b5b620007c18482850162000746565b91505092915050565b612bb580620007da6000396000f3fe608060405234801561001057600080fd5b50600436106101365760003560e01c80634e1273f4116100b8578063a22cb4651161007c578063a22cb4651461035d578063d539139314610379578063d547741f14610397578063e985e9c5146103b3578063f242432a146103e3578063f5298aca146103ff57610136565b80634e1273f4146102a5578063731133e9146102d557806391d14854146102f157806395d89b4114610321578063a217fddf1461033f57610136565b8063248a9ca3116100ff578063248a9ca3146102055780632eb2c2d6146102355780632f2ff15d1461025157806336568abe1461026d578063490f61511461028957610136565b8062fdd58e1461013b57806301ffc9a71461016b57806306fdde031461019b5780630e89341c146101b95780631b56a5be146101e9575b600080fd5b61015560048036038101906101509190611d8e565b61041b565b6040516101629190611ddd565b60405180910390f35b61018560048036038101906101809190611e50565b610475565b6040516101929190611e98565b60405180910390f35b6101a3610487565b6040516101b09190611f43565b60405180910390f35b6101d360048036038101906101ce9190611f65565b610515565b6040516101e09190611f43565b60405180910390f35b61020360048036038101906101fe9190611f92565b6105a9565b005b61021f600480360381019061021a919061201b565b6105e4565b60405161022c9190612057565b60405180910390f35b61024f600480360381019061024a919061226f565b610604565b005b61026b6004803603810190610266919061233e565b6106ac565b005b6102876004803603810190610282919061233e565b6106ce565b005b6102a3600480360381019061029e919061237e565b610749565b005b6102bf60048036038101906102ba91906124d8565b610788565b6040516102cc919061260e565b60405180910390f35b6102ef60048036038101906102ea9190612630565b610897565b005b61030b6004803603810190610306919061233e565b6108d4565b6040516103189190611e98565b60405180910390f35b61032961093f565b6040516103369190611f43565b60405180910390f35b6103476109cd565b6040516103549190612057565b60405180910390f35b610377600480360381019061037291906126df565b6109d4565b005b6103816109ea565b60405161038e9190612057565b60405180910390f35b6103b160048036038101906103ac919061233e565b610a0e565b005b6103cd60048036038101906103c8919061271f565b610a30565b6040516103da9190611e98565b60405180910390f35b6103fd60048036038101906103f8919061237e565b610ac4565b005b61041960048036038101906104149190611f92565b610b6c565b005b600080600083815260200190815260200160002060008473ffffffffffffffffffffffffffffffffffffffff1673ffffffffffffffffffffffffffffffffffffffff16815260200190815260200160002054905092915050565b600061048082610bfb565b9050919050565b600480546104949061278e565b80601f01602080910402602001604051908101604052809291908181526020018280546104c09061278e565b801561050d5780601f106104e25761010080835404028352916020019161050d565b820191906000526020600020905b8154815290600101906020018083116104f057829003601f168201915b505050505081565b6060600280546105249061278e565b80601f01602080910402602001604051908101604052809291908181526020018280546105509061278e565b801561059d5780601f106105725761010080835404028352916020019161059d565b820191906000526020600020905b81548152906001019060200180831161058057829003601f168201915b50505050509050919050565b7f9f2df0fed2c77648de5860a4cc508cd0818c85b8b8a1ab4ceeef8d981c8956a66105d381610c75565b6105de848484610c89565b50505050565b600060036000838152602001908152602001600020600101549050919050565b600061060e610d30565b90508073ffffffffffffffffffffffffffffffffffffffff168673ffffffffffffffffffffffffffffffffffffffff161415801561065357506106518682610a30565b155b156106975780866040517fe237d92200000000000000000000000000000000000000000000000000000000815260040161068e9291906127ce565b60405180910390fd5b6106a48686868686610d38565b505050505050565b6106b5826105e4565b6106be81610c75565b6106c88383610e30565b50505050565b6106d6610d30565b73ffffffffffffffffffffffffffffffffffffffff168173ffffffffffffffffffffffffffffffffffffffff161461073a576040517f6697b23200000000000000000000000000000000000000000000000000000000815260040160405180910390fd5b6107448282610f22565b505050565b7f9f2df0fed2c77648de5860a4cc508cd0818c85b8b8a1ab4ceeef8d981c8956a661077381610c75565b6107808686868686611015565b505050505050565b606081518351146107d457815183516040517f5b0599910000000000000000000000000000000000000000000000000000000081526004016107cb9291906127f7565b60405180910390fd5b6000835167ffffffffffffffff8111156107f1576107f0612077565b5b60405190808252806020026020018201604052801561081f5781602001602082028036833780820191505090505b50905060005b845181101561088c5761085c610844828761112090919063ffffffff16565b610857838761113490919063ffffffff16565b61041b565b82828151811061086f5761086e612820565b5b602002602001018181525050806108859061287e565b9050610825565b508091505092915050565b7f9f2df0fed2c77648de5860a4cc508cd0818c85b8b8a1ab4ceeef8d981c8956a66108c181610c75565b6108cd85858585611148565b5050505050565b60006003600084815260200190815260200160002060000160008373ffffffffffffffffffffffffffffffffffffffff1673ffffffffffffffffffffffffffffffffffffffff16815260200190815260200160002060009054906101000a900460ff16905092915050565b6005805461094c9061278e565b80601f01602080910402602001604051908101604052809291908181526020018280546109789061278e565b80156109c55780601f1061099a576101008083540402835291602001916109c5565b820191906000526020600020905b8154815290600101906020018083116109a857829003601f168201915b505050505081565b6000801b81565b6109e66109df610d30565b83836111e1565b5050565b7f9f2df0fed2c77648de5860a4cc508cd0818c85b8b8a1ab4ceeef8d981c8956a681565b610a17826105e4565b610a2081610c75565b610a2a8383610f22565b50505050565b6000600160008473ffffffffffffffffffffffffffffffffffffffff1673ffffffffffffffffffffffffffffffffffffffff16815260200190815260200160002060008373ffffffffffffffffffffffffffffffffffffffff1673ffffffffffffffffffffffffffffffffffffffff16815260200190815260200160002060009054906101000a900460ff16905092915050565b6000610ace610d30565b90508073ffffffffffffffffffffffffffffffffffffffff168673ffffffffffffffffffffffffffffffffffffffff1614158015610b135750610b118682610a30565b155b15610b575780866040517fe237d922000000000000000000000000000000000000000000000000000000008152600401610b4e9291906127ce565b60405180910390fd5b610b648686868686611015565b505050505050565b3373ffffffffffffffffffffffffffffffffffffffff168373ffffffffffffffffffffffffffffffffffffffff161480610bac5750610bab8333610a30565b5b610beb576040517f08c379a0000000000000000000000000000000000000000000000000000000008152600401610be290612912565b60405180910390fd5b610bf6838383610c89565b505050565b60007f7965db0b000000000000000000000000000000000000000000000000000000007bffffffffffffffffffffffffffffffffffffffffffffffffffffffff1916827bffffffffffffffffffffffffffffffffffffffffffffffffffffffff19161480610c6e5750610c6d82611351565b5b9050919050565b610c8681610c81610d30565b611433565b50565b600073ffffffffffffffffffffffffffffffffffffffff168373ffffffffffffffffffffffffffffffffffffffff1603610cfb5760006040517f01a83514000000000000000000000000000000000000000000000000000000008152600401610cf29190612932565b60405180910390fd5b600080610d088484611484565b91509150610d298560008484604051806020016040528060008152506114b4565b5050505050565b600033905090565b600073ffffffffffffffffffffffffffffffffffffffff168473ffffffffffffffffffffffffffffffffffffffff1603610daa5760006040517f57f447ce000000000000000000000000000000000000000000000000000000008152600401610da19190612932565b60405180910390fd5b600073ffffffffffffffffffffffffffffffffffffffff168573ffffffffffffffffffffffffffffffffffffffff1603610e1c5760006040517f01a83514000000000000000000000000000000000000000000000000000000008152600401610e139190612932565b60405180910390fd5b610e2985858585856114b4565b5050505050565b6000610e3c83836108d4565b610f175760016003600085815260200190815260200160002060000160008473ffffffffffffffffffffffffffffffffffffffff1673ffffffffffffffffffffffffffffffffffffffff16815260200190815260200160002060006101000a81548160ff021916908315150217905550610eb4610d30565b73ffffffffffffffffffffffffffffffffffffffff168273ffffffffffffffffffffffffffffffffffffffff16847f2f8788117e7eff1d82e926ec794901d17c78024a50270940304540a733656f0d60405160405180910390a460019050610f1c565b600090505b92915050565b6000610f2e83836108d4565b1561100a5760006003600085815260200190815260200160002060000160008473ffffffffffffffffffffffffffffffffffffffff1673ffffffffffffffffffffffffffffffffffffffff16815260200190815260200160002060006101000a81548160ff021916908315150217905550610fa7610d30565b73ffffffffffffffffffffffffffffffffffffffff168273ffffffffffffffffffffffffffffffffffffffff16847ff6391f5c32d9c69d2a47ea670b442974b53935d1edc7fd64eb21e047a839171b60405160405180910390a46001905061100f565b600090505b92915050565b600073ffffffffffffffffffffffffffffffffffffffff168473ffffffffffffffffffffffffffffffffffffffff16036110875760006040517f57f447ce00000000000000000000000000000000000000000000000000000000815260040161107e9190612932565b60405180910390fd5b600073ffffffffffffffffffffffffffffffffffffffff168573ffffffffffffffffffffffffffffffffffffffff16036110f95760006040517f01a835140000000000000000000000000000000000000000000000000000000081526004016110f09190612932565b60405180910390fd5b6000806111068585611484565b9150915061111787878484876114b4565b50505050505050565b600060208202602084010151905092915050565b600060208202602084010151905092915050565b600073ffffffffffffffffffffffffffffffffffffffff168473ffffffffffffffffffffffffffffffffffffffff16036111ba5760006040517f57f447ce0000000000000000000000000000000000000000000000000000000081526004016111b19190612932565b60405180910390fd5b6000806111c78585611484565b915091506111d96000878484876114b4565b505050505050565b600073ffffffffffffffffffffffffffffffffffffffff168273ffffffffffffffffffffffffffffffffffffffff16036112535760006040517fced3e10000000000000000000000000000000000000000000000000000000000815260040161124a9190612932565b60405180910390fd5b80600160008573ffffffffffffffffffffffffffffffffffffffff1673ffffffffffffffffffffffffffffffffffffffff16815260200190815260200160002060008473ffffffffffffffffffffffffffffffffffffffff1673ffffffffffffffffffffffffffffffffffffffff16815260200190815260200160002060006101000a81548160ff0219169083151502179055508173ffffffffffffffffffffffffffffffffffffffff168373ffffffffffffffffffffffffffffffffffffffff167f17307eab39ab6107e8899845ad3d59bd9653f200f220920489ca2b5937696c31836040516113449190611e98565b60405180910390a3505050565b60007fd9b67a26000000000000000000000000000000000000000000000000000000007bffffffffffffffffffffffffffffffffffffffffffffffffffffffff1916827bffffffffffffffffffffffffffffffffffffffffffffffffffffffff1916148061141c57507f0e89341c000000000000000000000000000000000000000000000000000000007bffffffffffffffffffffffffffffffffffffffffffffffffffffffff1916827bffffffffffffffffffffffffffffffffffffffffffffffffffffffff1916145b8061142c575061142b82611566565b5b9050919050565b61143d82826108d4565b6114805780826040517fe2517d3f00000000000000000000000000000000000000000000000000000000815260040161147792919061294d565b60405180910390fd5b5050565b60608060405191506001825283602083015260408201905060018152826020820152604081016040529250929050565b6114c0858585856115d0565b600073ffffffffffffffffffffffffffffffffffffffff168473ffffffffffffffffffffffffffffffffffffffff161461155f5760006114fe610d30565b9050600184510361154e57600061151f60008661113490919063ffffffff16565b9050600061153760008661113490919063ffffffff16565b905061154783898985858961197e565b505061155d565b61155c818787878787611b32565b5b505b5050505050565b60007f01ffc9a7000000000000000000000000000000000000000000000000000000007bffffffffffffffffffffffffffffffffffffffffffffffffffffffff1916827bffffffffffffffffffffffffffffffffffffffffffffffffffffffff1916149050919050565b805182511461161a57815181516040517f5b0599910000000000000000000000000000000000000000000000000000000081526004016116119291906127f7565b60405180910390fd5b6000611624610d30565b905060005b8351811015611839576000611647828661113490919063ffffffff16565b9050600061165e838661113490919063ffffffff16565b9050600073ffffffffffffffffffffffffffffffffffffffff168873ffffffffffffffffffffffffffffffffffffffff161461178b57600080600084815260200190815260200160002060008a73ffffffffffffffffffffffffffffffffffffffff1673ffffffffffffffffffffffffffffffffffffffff1681526020019081526020016000205490508181101561173357888183856040517f03dee4c500000000000000000000000000000000000000000000000000000000815260040161172a9493929190612976565b60405180910390fd5b81810360008085815260200190815260200160002060008b73ffffffffffffffffffffffffffffffffffffffff1673ffffffffffffffffffffffffffffffffffffffff16815260200190815260200160002081905550505b600073ffffffffffffffffffffffffffffffffffffffff168773ffffffffffffffffffffffffffffffffffffffff1614611826578060008084815260200190815260200160002060008973ffffffffffffffffffffffffffffffffffffffff1673ffffffffffffffffffffffffffffffffffffffff168152602001908152602001600020600082825461181e91906129bb565b925050819055505b5050806118329061287e565b9050611629565b5060018351036118f857600061185960008561113490919063ffffffff16565b9050600061187160008561113490919063ffffffff16565b90508573ffffffffffffffffffffffffffffffffffffffff168773ffffffffffffffffffffffffffffffffffffffff168473ffffffffffffffffffffffffffffffffffffffff167fc3d58168c5ae7397731d063d5bbf3d657854427343f4c083240f7aacaa2d0f6285856040516118e99291906127f7565b60405180910390a45050611977565b8373ffffffffffffffffffffffffffffffffffffffff168573ffffffffffffffffffffffffffffffffffffffff168273ffffffffffffffffffffffffffffffffffffffff167f4a39dc06d4c0dbc64b70af90fd698a233a518aa5d07e595d983b8c0526c8f7fb868660405161196e9291906129ef565b60405180910390a45b5050505050565b60008473ffffffffffffffffffffffffffffffffffffffff163b1115611b2a578373ffffffffffffffffffffffffffffffffffffffff1663f23a6e6187878686866040518663ffffffff1660e01b81526004016119df959493929190612a7b565b6020604051808303816000875af1925050508015611a1b57506040513d601f19601f82011682018060405250810190611a189190612aea565b60015b611a9f573d8060008114611a4b576040519150601f19603f3d011682016040523d82523d6000602084013e611a50565b606091505b506000815103611a9757846040517f57f447ce000000000000000000000000000000000000000000000000000000008152600401611a8e9190612932565b60405180910390fd5b805160208201fd5b63f23a6e6160e01b7bffffffffffffffffffffffffffffffffffffffffffffffffffffffff1916817bffffffffffffffffffffffffffffffffffffffffffffffffffffffff191614611b2857846040517f57f447ce000000000000000000000000000000000000000000000000000000008152600401611b1f9190612932565b60405180910390fd5b505b505050505050565b60008473ffffffffffffffffffffffffffffffffffffffff163b1115611cde578373ffffffffffffffffffffffffffffffffffffffff1663bc197c8187878686866040518663ffffffff1660e01b8152600401611b93959493929190612b17565b6020604051808303816000875af1925050508015611bcf57506040513d601f19601f82011682018060405250810190611bcc9190612aea565b60015b611c53573d8060008114611bff576040519150601f19603f3d011682016040523d82523d6000602084013e611c04565b606091505b506000815103611c4b57846040517f57f447ce000000000000000000000000000000000000000000000000000000008152600401611c429190612932565b60405180910390fd5b805160208201fd5b63bc197c8160e01b7bffffffffffffffffffffffffffffffffffffffffffffffffffffffff1916817bffffffffffffffffffffffffffffffffffffffffffffffffffffffff191614611cdc57846040517f57f447ce000000000000000000000000000000000000000000000000000000008152600401611cd39190612932565b60405180910390fd5b505b505050505050565b6000604051905090565b600080fd5b600080fd5b600073ffffffffffffffffffffffffffffffffffffffff82169050919050565b6000611d2582611cfa565b9050919050565b611d3581611d1a565b8114611d4057600080fd5b50565b600081359050611d5281611d2c565b92915050565b6000819050919050565b611d6b81611d58565b8114611d7657600080fd5b50565b600081359050611d8881611d62565b92915050565b60008060408385031215611da557611da4611cf0565b5b6000611db385828601611d43565b9250506020611dc485828601611d79565b9150509250929050565b611dd781611d58565b82525050565b6000602082019050611df26000830184611dce565b92915050565b60007fffffffff0000000000000000000000000000000000000000000000000000000082169050919050565b611e2d81611df8565b8114611e3857600080fd5b50565b600081359050611e4a81611e24565b92915050565b600060208284031215611e6657611e65611cf0565b5b6000611e7484828501611e3b565b91505092915050565b60008115159050919050565b611e9281611e7d565b82525050565b6000602082019050611ead6000830184611e89565b92915050565b600081519050919050565b600082825260208201905092915050565b60005b83811015611eed578082015181840152602081019050611ed2565b60008484015250505050565b6000601f19601f8301169050919050565b6000611f1582611eb3565b611f1f8185611ebe565b9350611f2f818560208601611ecf565b611f3881611ef9565b840191505092915050565b60006020820190508181036000830152611f5d8184611f0a565b905092915050565b600060208284031215611f7b57611f7a611cf0565b5b6000611f8984828501611d79565b91505092915050565b600080600060608486031215611fab57611faa611cf0565b5b6000611fb986828701611d43565b9350506020611fca86828701611d79565b9250506040611fdb86828701611d79565b9150509250925092565b6000819050919050565b611ff881611fe5565b811461200357600080fd5b50565b60008135905061201581611fef565b92915050565b60006020828403121561203157612030611cf0565b5b600061203f84828501612006565b91505092915050565b61205181611fe5565b82525050565b600060208201905061206c6000830184612048565b92915050565b600080fd5b7f4e487b7100000000000000000000000000000000000000000000000000000000600052604160045260246000fd5b6120af82611ef9565b810181811067ffffffffffffffff821117156120ce576120cd612077565b5b80604052505050565b60006120e1611ce6565b90506120ed82826120a6565b919050565b600067ffffffffffffffff82111561210d5761210c612077565b5b602082029050602081019050919050565b600080fd5b6000612136612131846120f2565b6120d7565b905080838252602082019050602084028301858111156121595761215861211e565b5b835b81811015612182578061216e8882611d79565b84526020840193505060208101905061215b565b5050509392505050565b600082601f8301126121a1576121a0612072565b5b81356121b1848260208601612123565b91505092915050565b600080fd5b600067ffffffffffffffff8211156121da576121d9612077565b5b6121e382611ef9565b9050602081019050919050565b82818337600083830152505050565b600061221261220d846121bf565b6120d7565b90508281526020810184848401111561222e5761222d6121ba565b5b6122398482856121f0565b509392505050565b600082601f83011261225657612255612072565b5b81356122668482602086016121ff565b91505092915050565b600080600080600060a0868803121561228b5761228a611cf0565b5b600061229988828901611d43565b95505060206122aa88828901611d43565b945050604086013567ffffffffffffffff8111156122cb576122ca611cf5565b5b6122d78882890161218c565b935050606086013567ffffffffffffffff8111156122f8576122f7611cf5565b5b6123048882890161218c565b925050608086013567ffffffffffffffff81111561232557612324611cf5565b5b61233188828901612241565b9150509295509295909350565b6000806040838503121561235557612354611cf0565b5b600061236385828601612006565b925050602061237485828601611d43565b9150509250929050565b600080600080600060a0868803121561239a57612399611cf0565b5b60006123a888828901611d43565b95505060206123b988828901611d43565b94505060406123ca88828901611d79565b93505060606123db88828901611d79565b925050608086013567ffffffffffffffff8111156123fc576123fb611cf5565b5b61240888828901612241565b9150509295509295909350565b600067ffffffffffffffff8211156124305761242f612077565b5b602082029050602081019050919050565b600061245461244f84612415565b6120d7565b905080838252602082019050602084028301858111156124775761247661211e565b5b835b818110156124a0578061248c8882611d43565b845260208401935050602081019050612479565b5050509392505050565b600082601f8301126124bf576124be612072565b5b81356124cf848260208601612441565b91505092915050565b600080604083850312156124ef576124ee611cf0565b5b600083013567ffffffffffffffff81111561250d5761250c611cf5565b5b612519858286016124aa565b925050602083013567ffffffffffffffff81111561253a57612539611cf5565b5b6125468582860161218c565b9150509250929050565b600081519050919050565b600082825260208201905092915050565b6000819050602082019050919050565b61258581611d58565b82525050565b6000612597838361257c565b60208301905092915050565b6000602082019050919050565b60006125bb82612550565b6125c5818561255b565b93506125d08361256c565b8060005b838110156126015781516125e8888261258b565b97506125f3836125a3565b9250506001810190506125d4565b5085935050505092915050565b6000602082019050818103600083015261262881846125b0565b905092915050565b6000806000806080858703121561264a57612649611cf0565b5b600061265887828801611d43565b945050602061266987828801611d79565b935050604061267a87828801611d79565b925050606085013567ffffffffffffffff81111561269b5761269a611cf5565b5b6126a787828801612241565b91505092959194509250565b6126bc81611e7d565b81146126c757600080fd5b50565b6000813590506126d9816126b3565b92915050565b600080604083850312156126f6576126f5611cf0565b5b600061270485828601611d43565b9250506020612715858286016126ca565b9150509250929050565b6000806040838503121561273657612735611cf0565b5b600061274485828601611d43565b925050602061275585828601611d43565b9150509250929050565b7f4e487b7100000000000000000000000000000000000000000000000000000000600052602260045260246000fd5b600060028204905060018216806127a657607f821691505b6020821081036127b9576127b861275f565b5b50919050565b6127c881611d1a565b82525050565b60006040820190506127e360008301856127bf565b6127f060208301846127bf565b9392505050565b600060408201905061280c6000830185611dce565b6128196020830184611dce565b9392505050565b7f4e487b7100000000000000000000000000000000000000000000000000000000600052603260045260246000fd5b7f4e487b7100000000000000000000000000000000000000000000000000000000600052601160045260246000fd5b600061288982611d58565b91507fffffffffffffffffffffffffffffffffffffffffffffffffffffffffffffffff82036128bb576128ba61284f565b5b600182019050919050565b7f4e6f74206f776e6572206e6f7220617070726f76656400000000000000000000600082015250565b60006128fc601683611ebe565b9150612907826128c6565b602082019050919050565b6000602082019050818103600083015261292b816128ef565b9050919050565b600060208201905061294760008301846127bf565b92915050565b600060408201905061296260008301856127bf565b61296f6020830184612048565b9392505050565b600060808201905061298b60008301876127bf565b6129986020830186611dce565b6129a56040830185611dce565b6129b26060830184611dce565b95945050505050565b60006129c682611d58565b91506129d183611d58565b92508282019050808211156129e9576129e861284f565b5b92915050565b60006040820190508181036000830152612a0981856125b0565b90508181036020830152612a1d81846125b0565b90509392505050565b600081519050919050565b600082825260208201905092915050565b6000612a4d82612a26565b612a578185612a31565b9350612a67818560208601611ecf565b612a7081611ef9565b840191505092915050565b600060a082019050612a9060008301886127bf565b612a9d60208301876127bf565b612aaa6040830186611dce565b612ab76060830185611dce565b8181036080830152612ac98184612a42565b90509695505050505050565b600081519050612ae481611e24565b92915050565b600060208284031215612b0057612aff611cf0565b5b6000612b0e84828501612ad5565b91505092915050565b600060a082019050612b2c60008301886127bf565b612b3960208301876127bf565b8181036040830152612b4b81866125b0565b90508181036060830152612b5f81856125b0565b90508181036080830152612b738184612a42565b9050969550505050505056fea2646970667358221220a62a57e1a81d4804811830b18f5b3ce7e3555ef3168e6d298133578d89818a0064736f6c63430008140033",
  "linkReferences": {},
  "deployedLinkReferences": {}
}